:020000040800F2
:10000000981700209901000805290008A32400087A
:1000100055280008850900081D3D00080000000063
:1000200000000000000000000000000001010008C6
:100030000B0A00080000000045010008CD37000849
:10004000B3010008B3010008B3010008B3010008C0
:10005000B3010008B3010008B3010008B3010008B0
:10006000B3010008B3010008B3010008B3010008A0
:10007000BD090008B3010008C9090008B301000860
:10008000B3010008D5090008B3010008B301000856
:10009000B3010008B3010008B3010008B301000870
:1000A000B301000849380008B3010008B301000893
:1000B000B3010008B301000855380008B301000877
:1000C000B3010008B3010008B3010008B301000840
:1000D000B3010008F93C0008053D0008113D000887
:1000E000B3010008B3010008B3010008DFF80CD029
:1000F00000F028FB004800474D48000898170020F2
:10010000224B19680868B0E8F00F80F30988BFF344
:100110006F8F4FF0000080F311884EF00D0E704786
:100120000000000006480068006880F3088862B696
:1001300061B6BFF34F8FBFF36F8F00DF00BF00BF0B
:1001400008ED00E0EFF30980BFF36F8F0F4B1A68E3
:1001500020E9F00F106008B54FF0500080F31188CF
:10016000BFF34F8FBFF36F8F05F026FA4FF00000FB
:1001700080F31188BDE8084019680868B0E8F00FFE
:1001800080F30988BFF36F8F704700BF70000020B5
:10019000EFF3058070470000064880470648004797
:1001A000FEE7FEE7FEE7FEE7FEE7FEE7FEE7FEE727
:1001B000FEE7FEE747380008ED000008202A04DBD0
:1001C000203A21FA02F00021704721FA02F3D040D0
:1001D000C2F12002914008431946704740EA0103EA
:1001E0009B0703D009E008C9121F08C0042AFAD2ED
:1001F00003E011F8013B00F8013B521EF9D27047B1
:10020000D2B201E000F8012B491EFBD27047002258
:10021000F6E710B513460A4604461946FFF7F0FF05
:10022000204610BD30B480EA010202F0004530F0F3
:10023000004221F0004013D090B1C30DD40DC2F3A1
:100240001601C0F31600E41A41F4000140F4000264
:100250007D34914201D3641C00E04900002C02DA95
:1002600030BC002070474FF400000023914201D3BE
:10027000891A034340084FEA4101F7D151B1914235
:1002800002D14FF0004105E002D24FF0010101E040
:100290006FF0010103EBC450284430BC00F063B898
:1002A000C10F80EAE0700844CA079623002100F0DD
:1002B00063B800F0004230F000400AD0C10D01F5F3
:1002C0006071C0F3160042EA0151C20840071143B1
:1002D000704700200146704730B50B4601460020AC
:1002E0002022012409E021FA02F59D4205D303FAF8
:1002F00002F5491B04FA02F52844151EA2F1010279
:10030000F1DC30BD2DE9F05F0546002092469B46AA
:1003100088460646814640241BE02846414647461B
:100320002246FFF74BFF53465A46C01A914110D35D
:1003300011461846224600F017FA2D1A67EB0108FD
:100340004F4622460120002100F00EFA17EB00096B
:100350004E41201EA4F10104DFDC484631462A4606
:100360004346BDE8F09F0029A8BF7047401C4900E4
:1003700008BF20F00100704710B4B0FA80FC00FA0A
:100380000CF050EA010404BF10BC704749B1CCF135
:10039000200421FA04F411FA0CF118BF01212143C1
:1003A0000843A3EB0C01CB1D4FEA00614FEA10207C
:1003B00042BF002010BC704700EBC350104400291E
:1003C000A4BF10BC7047401C490008BF20F00100CA
:1003D00010BC70472DE9FE4F804681EA0300C00F34
:1003E0000C46009021F0004123F00045B8EB0200DC
:1003F000A94105D24046214690461C460B4602467E
:1004000023F00040104347D0270DC7F30A00C3F381
:100410000A510290401A019040286BDAC3F313008E
:1004200040F4801B0098924620B10023D2EB030ACF
:1004300063EB0B0B01985946C0F14002504600F0A7
:1004400093F906460D4650465946019A00F09BF92D
:1004500010EB08006141002487EA115284EAE77337
:100460001A4340D0009A62B3019A012A4FEA075218
:1004700015DC001B61EB02014FF0004202EA07525B
:10048000CDE90042001C41F5801132462B4600F0B8
:100490009BF903B0BDE8F08F40462146F9E7001B09
:1004A00061EB0201001C41F5801300185B4120182C
:1004B000A2F5001747EB030140EAD570B6196D416C
:1004C00011E06D084FEA360645EAC0754FEA07525B
:1004D000001B61EB0201001C41F5801149084FEA45
:1004E00030000019514132462B4603B0BDE8F04FB1
:1004F00000F05BB90098012240000023D0EB02021B
:1005000063EBE073009821464FEAE074B8EB00001B
:1005100061EB0401E9E783F000435BE781F0004110
:1005200058E72DE9FE4F81EA030404F0004421F06E
:10053000004100944FF0000B23F0004350EA010407
:100540005ED052EA03045BD0C3F30A54C1F30A55E8
:100550002C44A4F2F3340194A0FB0254C1F3130120
:1005600041F48011C3F3130343F4801301FB0244ED
:1005700000FB034E840A970A44EA815447EA8357F2
:10058000A4FB076802958D0A05FB07854FEA932CAB
:1005900004FB0C542705029D4FEA065847EA16371C
:1005A000B5EB08056EEB070C870E920E47EA811734
:1005B00042EA8312A7FB0201B6EB0B0164EB0004D5
:1005C0002B0D43EA0C335E1844EB1C50DA465146BF
:1005D000E7FB0201C5F313044FEA0B3343EA14535C
:1005E0004FEA0432019C43EA0603A4F10C0402948E
:1005F000009CCDE900B400F0E7F803B0BDE8F08F4F
:1006000000200146F9E72DE9F04D81EA030404F0EA
:10061000004B21F0004514464FF0000A23F0004142
:1006200050EA050220D054EA01021DD0C5F30A5752
:100630000246C5F31303C1F31300C1F30A5640F495
:10064000801543F48013A7EB0608101BD64608F26A
:10065000FD3873EB050002D308F1010801E09218A0
:100660005B41B8F1000F03DA00200146BDE8F08DD0
:1006700000204FF48011064684460EE0171B73EBF2
:10068000050705D3121B63EB050306434CEA010C77
:1006900049084FEA300092185B4150EA0107EDD15A
:1006A00052EA030012D082EA040083EA05010843FB
:1006B00005D0101BAB4106D20122002306E0002228
:1006C0004FF0004302E06FF0010253101AEB0600F6
:1006D0004CEB085110EB0A0041EB0B01BDE8F04D6B
:1006E00000F063B8C1F30A52C1F3130140F2FF33C3
:1006F00041F480119A4202DA00200146704740F22C
:1007000033439A42A2F2334202DC5242FFF756BD13
:1007100000F02AB830B5041E71F1000404DB4FF07C
:100720000044404264EB0101141E73F1000405DB38
:100730001C464FF00043524263EB0403994208BF4A
:10074000904230BD064C074D06E0E06840F00103E2
:1007500094E8070098471034AC42F6D3FFF7CAFC80
:1007600084770008A4770008202A04DB203A00FAE6
:1007700002F1002070479140C2F1200320FA03F3F8
:10078000194390407047202A06DBCB17203A41FAE4
:1007900002F043EAE07306E041FA02F3D040C2F10E
:1007A0002002914008431946704710B5141E73F19A
:1007B000000408DA401C41F1000192185B411A4321
:1007C00001D120F0010010BD2DE9F04D92469B466D
:1007D00011B1B1FA81F202E0B0FA80F22032904613
:1007E000FFF7C2FF04460F4640EA0A0041EA0B0148
:1007F00053465A46084313D0114653EA010019D014
:10080000C8F140025046FFF7D9FC05460E46504657
:1008100059464246FFF7A8FF084305D0012004E0EF
:1008200020463946BDE8F08D0020054346EAE076D3
:100830002C4337430A986305E40AA0EB0800002222
:10084000FD0A44EA47540A3002D500200146E9E790
:10085000010510196941DDE9084500196941BDE844
:10086000F04DA2E770B51F4D04460E462878207063
:1008700069786170AA784FF6FF7101EA02226280FE
:10088000EB781A4462802A7901EA0221A1806A7910
:100890001144A1801449C979884201D0002070BD5B
:1008A000B01EC1B20F4800F0B3F8A919C3B211F8D5
:1008B000022C9A4204D111F8011CB1EB102F01D087
:1008C00003200CE06078032801D0012007E0608855
:1008D000A1880844072801D8002000E00220A07168
:1008E000012070BD52130020F800002070B50C46A6
:1008F0008A792249224DC979297072B16078032121
:1009000040F080006870A079A870284600F080F858
:10091000E870000A2871052070BD6178697021793E
:100920004900A97000210EE062880A4430F81220C4
:10093000130A05EB4102D37063880B44491C10F87D
:1009400013301371C9B2A2888A42EDD820790321ED
:1009500001EB4000C1B20A4800F05AF8A18805EB4B
:100960004101C870A188000A05EB41010871207996
:10097000052101EB4000C0B270BD0000F80000206E
:1009800072130020FEE770B504464FF6FF70002397
:100990004AF201050EE014F8012B50400022C60770
:1009A0004FEA500000D06840521CD2B2082AF6D359
:1009B0005B1CDBB28B42EED370BD0000014800F03F
:1009C00091B9000060050020014800F08BB90000DB
:1009D000D8040020014800F085B900001C05002063
:1009E00030B590F840500124AC40C56B6C60046891
:1009F00063604368102B036803D099600068C2608D
:100A000030BD9A600068C16030BD7047704700001B
:100A10002DE9F041ADF5007D0C460746FF254FF46A
:100A200080782E4642460E496846FFF7D7FB42467D
:100A30000C4940A8FFF7D2FB694640AA06E000BF78
:100A400017F8010B68400D5C7540165C641EE4B23B
:100A5000F6D20DF5007D45EA0620BDE8F0810000E4
:100A6000F0740008F075000870B5044600200346D5
:100A700031250EE014F8012B50400022060602D565
:100A800085EA400000E04000521CC0B2082AF5DBB5
:100A90005B1C8B42EEDB70BDF8B505460021254C92
:100AA00008466054491CC9B22029FAD3224E316845
:100AB00008684868009008684868009008684868B6
:100AC00000900868486800906FF0400008600722B6
:100AD0001A49304601F09AFC31686FF02000086036
:100AE00020221449304601F0E7FB1548C821006870
:100AF00004F076F82078422819D160784D2816D174
:100B00001E210C4802F056FE80B2E17FC2B2914233
:100B10000DD1A17FB1EB102F09D1A0792870E07918
:100B20006870207AA870607AE8700020F8BD4FF0F5
:100B3000FF30F8BD1C13002058040020D100002015
:100B40005800002010B5F52001F082FFA0F57F418C
:100B5000FF3907D020F00F0040F2E2414843001473
:100B60003C3810BD004810BD19FCFFFF10B5F32044
:100B700001F06EFFA0F57F41FF3908D020F003009F
:100B800040F2DD6148430014A0F5EA7010BD014851
:100B900010BD000019FCFFFFF8B505460020274CEA
:100BA00001462154401CC0B21128FAD3244E3068AB
:100BB00001684168009101684168009101684168DD
:100BC00000910168416800916FF0400101600922C5
:100BD0001C49304601F01AFC31686FF020000860B3
:100BE00011221649304601F067FB1748C8210068FA
:100BF00003F0F6FF207842281DD160784D281AD1E5
:100C00000D21A01CFFF7BFFE80B2E17BC2B2914272
:100C100011D1217CB1EB102F0DD1607A2870A07A10
:100C20006870E07AA870207BE870607B2871A07BF8
:100C300068710020F8BD4FF0FF30F8BD3E13002072
:100C400098040020E60000205400002010B590F821
:100C500021100024022903D00421816301243DE0F6
:100C600001680A6822F00E020A6001680A6822F030
:100C700001020A601A4A0168914201D1012121E072
:100C8000174A1432914201D110211BE0144A283234
:100C9000914201D1891515E0114A3C32914201D1AE
:100CA00089140FE00E4A5032914202D14FF4803144
:100CB00008E00B4A6432914202D14FF4801101E006
:100CC0004FF08071064A083A5160012180F82110E6
:100CD000002180F82010416B01B18847204610BDEB
:100CE000080002402DE9F05FC16B0C6801680B68D9
:100CF000D0F840C0042202FA0CF2494DDFF824A1DA
:100D0000494E4A4FDFF828B1DFF828E122422CD0C3
:100D10005A072AD50A68920603D40A6822F0040208
:100D20000A600168A94201D1042219E0514501D1AC
:100D3000402215E0B14202D14FF4806210E0B94286
:100D400002D14FF480420BE0594502D14FF480228A
:100D500006E0714502D14FF4800201E04FF080625D
:100D60002F4908394A60C16A3BE04FF0020808FA8F
:100D70000CF818EA040F4FF000094FF0010235D0CB
:100D80005FEA837832D50B689B0605D40B6823F0A5
:100D90000A030B6080F821200168A94201D10222D8
:100DA00019E0514501D1202215E0B14202D14FF4A2
:100DB000007210E0B94202D14FF400520BE05945E5
:100DC00002D14FF4003206E0714502D14FF4001217
:100DD00001E04FF00072124908394A6080F8209013
:100DE000816A00291AD0BDE8F05F0847082505FA96
:100DF0000CF5254212D01B0710D50B6823F00E030B
:100E00000B6090F84010C36B02FA01F159608263E5
:100E100080F8212080F82090016BE2E7BDE8F09F88
:100E2000080002401C000240300002404400024022
:100E3000580002406C00024030B528B308C813497E
:100E400014221944B1FBF2F18900C1631049816396
:100E5000022141771A6843F6F0718A43D0E9001401
:100E60002143D0E902452C432143046921434469CD
:100E70002143846921431143196000214163012208
:100E800042770177084630BD012030BDF8FFFDBF35
:100E90000000024070B5044690F8200000250128AB
:100EA0000CD0012084F8200094F821600020012E4D
:100EB00006D084F820000225284670BD022070BDAF
:100EC000022684F82160A0632068066826F00106E7
:100ED00006602046FFF784FDE06A0028206801686C
:100EE00002D041F00E0106E021F00401016020680B
:100EF000016841F00A0101602068016841F00101C8
:100F00000160D9E770B5044600F008F90546601C99
:100F100002D004480078044400F000F9401BA042CD
:100F2000FAD370BD600000202DE9F84FDFF8B891CA
:100F3000002409F1040A0AF1040B23460F270BF1E0
:100F4000040EC9E00125A5402A40AA427DD1674E82
:100F5000D1F804C0ACEB0608B44532D014DCBCF1C7
:100F6000030F3AD009DCBCF1000F2AD0BCF1010F0D
:100F70001CD0BCF1020F31D11DE0BCF1110F17D014
:100F8000BCF1120F2AD119E0B8F5881F19D006DC80
:100F9000B8F5803F15D0B8F5801F1FD111E0B8F526
:100FA000001F0ED0B8F5041F18D10AE0CB6815E079
:100FB000CB681B1D12E0CB6808330FE0CB680C3305
:100FC0000CE08B682BB1012B4FF0080303D0456177
:100FD00004E0042302E0056100E00023FF2A01D8B9
:100FE000064601E000F104064FEA840501D9A5F1A7
:100FF0002005D6F8008007FA05FC28EA0C0803FA59
:1010000005F548EA0508C6F800804D68ED0062D590
:10101000374DAE6946F00106AE61AD6924F00306B6
:1010200005F001050095334D06EB050CDCF8085082
:10103000A607360F07FA06F825EA0805DFF8B88094
:10104000404503D14FF0000817E044E0DFF8AC80E2
:10105000404502D14FF001080FE0DFF8A480404581
:1010600002D14FF0020808E0DFF89880404502D135
:101070004FF0030801E04FF0040808FA06F848EAC8
:101080000508CCF808804D68D9F80060ED034D469E
:1010900001D5164300E096432E604D68DAF80060F3
:1010A000AD03554601D5164300E096432E604D68CA
:1010B000DBF80060ED025D4601D5164300E0964383
:1010C0002E604D68DEF80060AD02754601D516430E
:1010D00000E096432E60641C0D682A46E5407FF4CC
:1010E00031AFBDE8F88F000000040140000011108E
:1010F000001002400000014000080140000C0140C7
:1011000000100140001401408068084000D0012018
:1011100070470AB1016170470904FBE70148806824
:101120007047000060000020024881680278114486
:101130008160704760000020074810B5016841F0E9
:1011400010010160032000F095F8002000F006F87F
:1011500000F03EF8002010BD0020024000B501461E
:1011600087B00022192000F065F8192000F054F82B
:101170001348816941F400618161806905A900F427
:1011800000600690684600F01DF900F04BF90D492B
:101190000D4AB0FBF1F10D48491E0260416040F27A
:1011A000E7320021C0E90321816000F08DFC10B11D
:1011B000012007B000BD054800F0D2FCF9E70000AF
:1011C0000010024040420F00002C0140A405002006
:1011D0000F4808B5816941F001018161816901F021
:1011E00001010091C16941F08051C161C0690022D3
:1011F00000F0805000900F21901E00F01BF8054871
:10120000416821F0E06141F00071416008BD0000DB
:101210000010024000000140002809DB00F01F021E
:10122000012191404009800000F1E020C0F8001148
:1012300070470000F0B40E4B1B680C46C3F302234A
:10124000C3F10705042D00D90425191D072901D272
:10125000002300E0DB1E012606FA05F1491E2140AD
:1012600099409E40761E16403143F0BC02F082BD8C
:101270000CED00E0064900F0070208684FF6FF0396
:10128000184040EA0220034A1043086070470000FB
:101290000CED00E00000FA052DE9F0470F460500CF
:1012A00061D0434E306800F00700B84209D2306880
:1012B00020F0070038433060306800F00700B84283
:1012C00051D128683B4C810712D5400703D560688F
:1012D00040F4E06060602878000703D5606840F45F
:1012E000605060606068A96820F0F00008436060AA
:1012F0002878C00728D06868012810D02168022803
:1013000010D0890700292EDA616821F0030101431A
:101310006160FFF703FF804641F288390DE02168E4
:101320008903EFE78901EDE7FFF7F8FEA0EB08017D
:10133000494502D90320BDE8F0876068696800F07C
:101340000C00B0EB810FEFD1306800F00700B8421D
:101350000BD9306820F0070038433060306800F067
:101360000700B84201D00120E5E72878400705D5FD
:101370006068E96820F4E06008436060287800074E
:1013800006D56068296920F4605040EAC1006060B9
:1013900000F058F86168084AC1F30311515CC84075
:1013A0000649086006480068FFF7D8FE0020C2E73B
:1013B00000200240001002401C6100086C00002068
:1013C000640000200F2202600C4A536803F00303FC
:1013D0004360536803F0F0038360536803F4E063F1
:1013E000C36052684FF4E06303EAD202026104482A
:1013F000006800F00700086070470000001002401D
:10140000002002400448054900684968044AC1F3C5
:101410000221515CC84070476C000020001002405F
:101420002C6100080448054900684968044AC1F372
:10143000C221515CC84070476C000020001002407F
:101440002C61000812A185B00FC98DE80F0014A00F
:10145000144A006804905168134801F00C03042BEF
:1014600010D0082B0ED1C1F38343C9031DF803002C
:101470000AD5516804AAC1F34041515C0A4A50435D
:10148000B0FBF1F005B0704708494843FAE70000A7
:1014900002030405060708090A0B0C0D0E0F1010B5
:1014A000010200000010024000127A0000093D0015
:1014B0002DE9F84F040070D02078C04DC00749D006
:1014C0006868C0F38100012807D06868C0F3810014
:1014D000022809D16868C00306D52868800339D579
:1014E00060680028E7D035E06068B0F5803F0BD039
:1014F00010B1B0F5A02F11D0286820F480302860FA
:10150000286820F4802002E0286840F480302860B9
:10151000606890B1FFF702FE06460AE0286840F4D2
:1015200080202860F0E700BFFFF7F8FD801B6428EB
:1015300073D828688003F7D50CE0FFF7EFFD064667
:1015400005E000BFFFF7EAFD801B6428F0D828689B
:101550008003F7D420789A4E80074FF001094FF0AE
:10156000000839D5686810F00C0F07D06868C0F320
:101570008100022809D16868C00306D42868800762
:1015800014D52069012808D110E02069B0B1C6F84F
:101590000090FFF7C3FD074605E00AE1FFF7BEFD37
:1015A000C01B0228C4D828688007F7D5286861695D
:1015B00020F0F80040EAC10028600DE0C6F8008085
:1015C000FFF7ACFD074604E0FFF7A8FDC01B0228AB
:1015D00023D828688007F7D4207800072CD57948CD
:1015E000A169D9B1C0F80090FFF798FD074604E063
:1015F000FFF794FDC01B02280FD8686A8007F7D553
:1016000071484FF4FA510068B0FBF1F0009000BF50
:101610000098411E0091FAD20EE080E0C0F80080F0
:10162000FFF77CFD074604E0FFF778FDC01B0228AA
:1016300075D8686A8007F7D42078400760D5E869D4
:101640000027C00008D4E86940F08050E861E869EC
:10165000012700F0805000905C480168C90513D450
:101660000168834641F480710160FFF757FD8246AF
:1016700006E000BFFFF752FDA0EB0A0064284ED839
:10168000DBF80000C005F5D5E06801280AD008B1F4
:10169000052813D0286A20F001002862286A20F06B
:1016A000040002E0286A40F001002862E06841F28C
:1016B000883B98B1FFF732FD82460BE0286A40F084
:1016C00004002862EEE700BFFFF728FDA0EB0A0147
:1016D00059455AD8286A8007F6D50CE0FFF71EFD59
:1016E000824605E0FFF71AFDA0EB0A0159454CD8E8
:1016F000286A8007F6D41FB1E86920F08050E861BD
:10170000E06988B36968C1F38101022944D00228E5
:10171000C6F8608004D0FFF701FD044638E034E0ED
:10172000FFF7FCFC074604E0FFF7F8FCC01B0228AB
:101730002BD828688001F7D4206AB0F5803F05D106
:101740006868A16820F4003008436860D4E90801A3
:101750000843696821F4741108436860C6F8609012
:10176000FFF7DCFC044606E025E000BFFFF7D6FCEF
:10177000001B022809D828688001F7D51BE000BFAC
:10178000FFF7CCFC001B022802D90320BDE8F88F2C
:1017900028688001F4D40EE00128F7D06868226A36
:1017A00000F48031914204D1616A00F470108842E3
:1017B00001D00120EAE70020E8E700000010024025
:1017C00000004242800442426C0000200070004051
:1017D00070B5040009D0606A002540B125616561DB
:1017E000A56294F8510040B10CE0012070BD606822
:1017F000B0F5827FF4D0E561F2E784F850502046DE
:1018000000F040F8022084F851002068016821F0BF
:1018100040010160A088218900F4827001F4044134
:101820000843A18901F400610843217C01F0020111
:101830000843217D01F001010843218B01F400716F
:101840000843217F01F03801084394F8201001F08B
:1018500080010843218D01F400510843216808608C
:10186000A069042101EA1040216848602068C1692C
:1018700021F40061C1616565012084F851000020F8
:1018800070BD000000B585B000210091019102916A
:10189000039100681349884221D11348816941F4BA
:1018A00080518161816901F480510491816941F025
:1018B000080181618069694600F0080004902820D1
:1018C000009002200190032003900848FFF72CFBB2
:1018D0000748416841F0E06141F00101416005B015
:1018E00000BD00000030014000100240000C01402B
:1018F000000001402DE9F84F044690F85000002701
:101900001D461646894601280DD04FF0010B84F87C
:1019100050B0FFF703FC804694F85100BA46012806
:1019200004D0022793E00220BDE8F88FB9F1000F40
:1019300073D0002E71D0032084F85100C4F854A055
:10194000C4F83090A686E686C4F838A0A4F83CA077
:10195000A4F83EA0C4F844A0C4F840A0A068B0F524
:10196000004F09D12068016821F040010160206822
:10197000016841F48041016020680168490603D490
:10198000016841F040010160E068B0F5006F6068F7
:1019900003D030B3012E24D041E008B1012E1CD178
:1019A000206B21680088C86006E02068816889078C
:1019B00009D5216B0988C160206B801C2063E08EF3
:1019C000401EE08609E0FFF7A9FBA0EB0800A84253
:1019D00002D3681C01D031E07DB3E08E0028E4D151
:1019E00020E0206B21680078087306E02068816899
:1019F000890709D5216B09780173206B401C20638E
:101A0000E08E401EE0860AE0FFF788FBA0EB0800AE
:101A1000A84203D3681C02D010E017E06DB1E08E3D
:101A20000028E3D142462946204601F088F808B153
:101A300020206065A06818B106E0FFE7032706E0F4
:101A40002068C16880680090606D00B1012784F84B
:101A500051B084F850A0384666E7704770470000E0
:101A600070B590F83C20012A26D0012480F83C4033
:101A7000022280F83D2003685A689D6822F07006B3
:101A80000A6832435A600D4B02689A4208D0B2F19C
:101A9000804F05D00A4B9A4202D00A4B9A4204D199
:101AA000496825F080031943916080F83D4000218A
:101AB00080F83C10084670BD022070BD002C01402B
:101AC000000400400008004010B5040003D094F862
:101AD0003D0010B107E0012010BD002084F83C005B
:101AE000204600F01FF8022084F83D00211D2068E8
:101AF00001F0B6FE012084F8460084F83E0084F828
:101B00003F0084F8400084F8410084F8420084F8E3
:101B1000430084F8440084F8450084F83D00002028
:101B200010BD000008B500680B49884212D10B486F
:101B3000C16941F00401C161C069002200F00400E4
:101B4000009005211E20FFF775FBBDE808401E2010
:101B5000FFF762BB08BD0000000800400010024013
:101B600090F83D10012901D001207047022180F832
:101B70003D100168CA6842F00102CA6000680B4962
:101B8000884208D0B0F1804F05D00949884202D080
:101B90000849884204D1816801F00701062903D071
:101BA000016841F00101016000207047002C0140F4
:101BB000000400400008004070B5044690F83C0066
:101BC000012817D0012584F83C50022084F83D00FC
:101BD0002068826822F0770222F47F4282600868DF
:101BE000502830D00DDC20284DD005DC98B31028CB
:101BF0003BD148E0022070BD302844D0402834D189
:101C000039E0602828D0702806D0B0F5805F2CD04D
:101C1000B0F5005F29D10AE0CB68D1E90121206845
:101C200001F054FE2068816841F0770109E0CB683B
:101C3000D1E90121206801F049FE2068816841F462
:101C40008041816011E0CA684968206801F050FE57
:101C50005021206807E016E0CA684968206801F052
:101C600058FE6021206801F03BFE84F83D500020C2
:101C700084F83C0070BDCA684968206801F038FEED
:101C800040212068EFE7226801461046EBE77047E5
:101C900070B50446006801694FF00005C943890723
:101CA00015D4C168C943890711D4E91E0161012017
:101CB0002077206880698007204602D0FFF7E7FF81
:101CC00004E000F098F8204600F096F825772068A8
:101CD0000169C943490717D4C168C943490713D4E7
:101CE0006FF004010161022020772068806910F400
:101CF000407F204602D0FFF7CAFF04E000F07BF8E7
:101D0000204600F079F8257720680169C943090762
:101D100016D4C168C943090712D46FF008010161E4
:101D2000042020772068C0698007204602D0FFF792
:101D3000AEFF04E000F05FF8204600F05DF8257784
:101D400020680169C943C90617D4C168C943C906D7
:101D500013D46FF010010161082020772068C0695A
:101D600010F4407F204602D0FFF791FF04E000F01E
:101D700042F8204600F040F8257720680169C94301
:101D8000C90708D1C168C943C90704D1891E0161C7
:101D9000204600F033F820680169C943090609D4D8
:101DA000C168C943090605D46FF08001016120466E
:101DB000FFF753FE20680169C943490609D4C16889
:101DC000C943490605D46FF040010161204600F087
:101DD0002BF820680169C94389060BD4C168C9433F
:101DE000890607D46FF0200101612046BDE87040EC
:101DF000FFF734BE70BD70477047000010B5044651
:101E000000680749884201D1FFF78EF9054920682B
:101E1000884203D1BDE8104000F032BD10BD000083
:101E2000002C0140000800407047704770B5026800
:101E300004461068D168536910F00F0F52D003F0B8
:101E4000010501F490762E435FD0C20705D0CA0584
:101E500003D5E26B42F00102E263420705D5DA07DF
:101E600003D0E26B42F00202E263820705D5DA0793
:101E700003D0E26B42F00402E263020707D501F0EF
:101E800020022A4303D0E26B42F00802E263E26BD5
:101E9000002A33D0800604D5880602D5204601F0FA
:101EA00057FE20684069E16BC0F38010090700D439
:101EB00028B3204601F035FE2068416949061AD54D
:101EC000416921F040014161606BA0B12D4941633E
:101ED000606BFEF7BBFE002810D0606B416BBDE865
:101EE00070400847830610D58B060ED52046BDE806
:101EF000704001F02DBE2046FFF797FF70BD2046D1
:101F0000FFF793FF0020E06370BD03062BD50B069F
:101F100029D594F839002128F6D1A068B0F5805F62
:101F200001D12069B0B1206A411C2162216800788A
:101F30004860E08C401E0004000CE084E4D120687E
:101F4000C16821F08001C1602068C16841F0400192
:101F5000C16070BD206A0088C0F308005060206A2C
:101F6000801C2062E5E74006F3D54806F1D5D1682C
:101F7000204621F04001D160202184F8391000F082
:101F800085FA70BD913A000870B5040004D094F849
:101F90003900002510B106E0012070BD84F83850EA
:101FA000204600F023F8242084F839002068C16816
:101FB00021F40051C160204601F010FE2068016943
:101FC00021F4904101612068416921F02A014161B9
:101FD0002068C16841F40051C160E563202084F8A5
:101FE000390084F83A00002070BD00002DE9F0436C
:101FF00085B0002400940194029403940546DFF810
:10200000DC81D0F800C0764802210322754B1026EF
:1020100080274FF48069C44545D1D0F818C04CF4EE
:10202000804CC0F818C0D0F818C00CF4804CCDF823
:1020300010C0D0F818C04CF0040CC0F818C080696B
:10204000039200F0040004900802CDE90001694603
:1020500098461846FEF768FFCDE900946946404669
:102060000294FEF761FFDFF884815F494046C8F8BB
:102070000010C0E90164C0E90374C8F81440C8F84E
:102080001840C8F81C40FEF7D7FE08B1FEF7BEFCAA
:10209000C5F83080002205212520C8F82450FFF71C
:1020A000C9F825204CE0DFF84881C4454DD1D0F86F
:1020B0001CC04CF4003CC0F81CC0D0F81CC00CF490
:1020C000003CCDF810C0D0F818C04CF0040CC0F89B
:1020D00018C08069039200F0040004900420CDE948
:1020E0000001694698461846FEF71EFF0820CDE914
:1020F0000004694640460294FEF716FFDFF8EC80C4
:10210000394908F144083C314046C8F80010C0E99C
:102110000164C0E90374C8F81440C8F81840C8F84E
:102120001C40FEF789FE08B1FEF770FCC5F8308050
:10213000002205212620C8F82450FFF77BF826202E
:10214000FFF76AF805B0BDE8F0832A4B9C45F9D14A
:10215000C36943F48023C361C36903F480230493F8
:10216000836943F0080383618069CDE9009100F041
:102170000800CDE90320DFF8808069464046FEF77D
:10218000D3FE4FF40060CDE9000469464046029456
:10219000FEF7CAFEDFF85480134908F18808283991
:1021A0004046C8F80010C0E90164C0E90374C8F8EB
:1021B0001440C8F81840C8F81C40FEF73DFE08B1AE
:1021C000FEF724FCC5F83080002205212720C8F83E
:1021D0002450FFF72FF82720B2E700000038014015
:1021E000001002400008014044000240D8040020D2
:1021F0000044004000480040000C01402DE9F84F29
:10220000044690F83A009A4616460D46202851D1C9
:10221000EDB1E6B194F8380001284BD0012084F8E4
:1022200038000027E763222084F83A00FEF776FFA3
:10223000A6858146E685A0684FF48058404501D1C7
:10224000206938B12E46002584F8387027E0012037
:10225000BDE8F88F0026F7E74B46002220212046F4
:10226000CDF800A001F016FD08B10320F0E726B17B
:10227000A06840451BD038B108E020684068C0F332
:10228000080025F8020B07E0206980B1206840684B
:1022900000F07F0006F8010BE08D401EE085E08D28
:1022A0000028D9D1202084F83A000020D0E7206807
:1022B0004068EFE70220CBE790F83A30202B22D19C
:1022C000F9B1F2B190F83830012B1CD081628285CF
:1022D000C2850021C163222280F83A2080F838109C
:1022E0000168CA6842F48072CA6001684A6942F0B3
:1022F00001024A610068C16841F02001C16000200C
:1023000070470120704702207047000010B5044656
:1023100000680C49884201D100F0CEFA0A492068D1
:10232000884203D10948006802F032FC084920685D
:10233000884205D107480068BDE8104002F028BC7B
:1023400010BD00000038014000440040580000204B
:1023500000480040540000202DE9F843044690F85E
:1023600039001F4616460D4620284CD1C5B1BEB1D6
:1023700094F83800012846D0012084F838004FF046
:102380000008C4F83C80212084F83900FEF7C6FE1E
:10239000A6848146E684A068B0F5805F03D004E09F
:1023A0000120BDE8F883206928B12E465FF00005C2
:1023B00084F838800EE00026FAE78021204601F0FC
:1023C00069FCA0B9AEB116F8010B21684860E08C39
:1023D000401EE084E08C4B464FF00002009700283E
:1023E000EBD14FF04001204601F054FC30B1032006
:1023F000D7E735F8020BC0F30800E6E7202084F8A1
:1024000039000020CDE70220CBE7000070B504467C
:1024100090F83900202830D169B362B394F83800BD
:1024200001282AD0012084F838002162A284E284A5
:102430000025E563212084F83900236B1048986259
:10244000236B1048D862236B0F481863206B134628
:1024500045632668206B321DFEF71CFD21686FF076
:102460004000086084F838502068416941F08001DC
:102470004161002070BD012070BD022070BD0000D0
:10248000EB3A0008193B0008A13A0008006803492C
:10249000884201D100F02EBA704700000038014098
:1024A0007047FEE7094802216422C1710849496862
:1024B000B1FBF2F14FF47062B2FBF1F1C9B281707D
:1024C0000722B1FBF2F1017170470000F800002013
:1024D0001804002010B5002400F016FA002805D0DA
:1024E000641CE4B20A2CF7D34FF0FF3010BD10B5D6
:1024F000002401F08BFA002805D0641CE4B20A2CF9
:10250000F7D34FF0FF3010BD114808B5416941F0D5
:10251000010141614069002200F0010000900521A5
:102520000C20FEF787FE0C20FEF776FE0022052128
:102530000E20FEF77FFE0E20FEF76EFE0022052124
:102540001120FEF777FEBDE808401120FEF764BEBB
:102550000010024030B5304DABB0D5E90001CDE9F7
:102560002301012123A802F0F3FA2C4C6061D5E984
:102570000201CDE92501012125A802F0E9FAA061B7
:10258000D5E90401CDE92701012127A802F0E0FAED
:10259000E061D5E90601CDE92901012129A802F070
:1025A000D7FA20621C2205F120016846FDF716FECD
:1025B0000021684602F046FB20601C2205F13C0128
:1025C00007A8FDF70BFE002107A802F03BFB6060A7
:1025D0001C2205F158010EA8FDF700FE00210EA8EF
:1025E00002F030FBA0601C2205F1740115A8FDF774
:1025F000F5FD002115A802F025FBE0601C2205F185
:1026000090011CA8FDF7EAFD00211CA802F01AFBAE
:1026100020612BB030BD0000706000083C0000203D
:102620002DE9F04385B000243148009401940294D0
:102630000394816941F010018161816901F0100109
:102640000491816941F020018161816901F02001DB
:102650000491816941F004018161816901F0040103
:102660000491816941F0080181618069DFF884800B
:1026700000F00800049001224FF488714046FEF7F4
:1026800048FDDFF874904FF49E57002239464846C3
:10269000FEF73FFD00224FF418414046FEF739FD9A
:1026A0004FF4C04001258DE83100144E6946304694
:1026B000FEF73AFCE803CDE900046946304602948F
:1026C000FEF732FC49F610100226CDE90005CDE9EF
:1026D000024669464046FEF727FC00970396CDE97F
:1026E000015469464846FEF71FFC05B0BDE8F0837B
:1026F0000010024000080140000C014000100140A1
:10270000104810B50E4901604FF4827141600021FC
:102710008160C1604FF400720161C0E905120822B6
:10272000C0E90721416281620A21C162FFF750F8C6
:10273000002803D0BDE81040FEF768B910BD0000C6
:10274000003001407803002010B586B00024164800
:102750000094019402940394049412490594016036
:102760004721C0E901146321C0E903148461FFF724
:10277000ABF908B1FEF74AF94FF480500090694672
:102780000948FFF719FA08B1FEF740F9049404A9C3
:1027900005480594FFF764F9002801D0FEF736F9E3
:1027A00006B010BD00080040D00300200C4810B552
:1027B0000A4901604FF416514160002181600C22EA
:1027C000C160C0E904128161C161FFF7DDFB00282F
:1027D00003D0BDE81040FEF719B910BD0038014024
:1027E000180400200C4810B50A4901604FF4165136
:1027F0004160002181600C22C160C0E90412816146
:10280000C161FFF7C1FB002803D0BDE81040FEF70F
:10281000FDB810BD00440040580400200C4810B51D
:102820000A4901604FF416514160002181600C2279
:10283000C160C0E904128161C161FFF7A5FB0028F6
:1028400003D0BDE81040FEF7E1B810BD00480040DD
:1028500098040020FEE7000070B50C4605460122F2
:10286000D1020548FEF755FC22462946BDE87040D6
:102870000248FFF7CBBD000000080140180400200B
:1028800070B50B4C6078401CC0B26070A178884273
:102890000CD3002565702078082804D3E070054823
:1028A000006802F075F901206071257070BD0000AC
:1028B000F80000205000002070B50B4C00250B489C
:1028C0006179012904D16571A179415C017025709C
:1028D00021780122491CC9B22170A1710144044828
:1028E000FFF7EAFC657070BDF8000020521300206D
:1028F0001804002000224FF400610148FEF709BCD3
:1029000000080140704700003EB51B4C206801687C
:102910004168029101684168029101684168029131
:102920000168416802916FF04001016013A142F219
:102930001073D1E90001CDE9000107226946204664
:10294000FFF70AFD21686FF020000860C823082205
:102950000C492046FFF752FC0A480178422905D16C
:1029600041784D2902D10079E12802D04FF0FF30A3
:102970003EBD00203EBD000058040020424DE10055
:10298000000170001C1300202DE9F0472E4C2F4D44
:10299000002620784FF400414FF400594FF4804A4C
:1029A00028B10027012814D0022849D139E028464F
:1029B000FEF7AAFB48B149462846FEF7A5FB20B121
:1029C00051462846FEF7A0FB20BB2078401C207013
:1029D00036E088462846FEF797FB48B14946284628
:1029E000FEF792FB20B151462846FEF78DFB30BB27
:1029F00020784146401C20702846FEF785FB50B1E8
:102A000049462846FEF780FB38B151462846FEF776
:102A10007BFB20B114E0032612E0012610E0022621
:102A20000EE02846FEF770FB50B149462846FEF7F7
:102A30006BFB28B151462846FEF766FB00B12770B4
:102A40003046BDE8F0870000D000002000100140B3
:102A5000F8B50446002501F0B1FE802001F084FEA7
:102A600001F0D2FE204601F07FFE01F0CDFE01F024
:102A7000BBFE00244FF6FF760A2002F05DF801F05D
:102A80009DFE812001F070FE01F0BEFE90B9012490
:102A900001F046FE8DF8000001F0EAFD01F040FE75
:102AA0008DF8010001F0E4FD01F03AFE8DF802001E
:102AB00001F022FE01F098FE6D1CEDB20A2D02D34A
:102AC00001F092FE0DE0002CD6D002216846FDF701
:102AD000CBFF9DF80210884203D1BDF8000040BA38
:102AE000F8BD3046F8BD70B500244FF6FF7500F014
:102AF00014F8322002F020F8F320FFF7A9FFA842D3
:102B000001D0002070BD322002F016F8641CE4B23F
:102B10000A2CECD34FF0FF3070BD10B5FE2401F04D
:102B20004DFE802001F020FE01F06EFE204601F0F7
:102B30001BFE01F069FEBDE8104001F055BE38B53E
:102B40000B46009204460022802100F009F800287C
:102B500004D0606D40F020006065032038BD0000A7
:102B60002DE9F8431E46914688460446089DFEF727
:102B7000D5FA401B351AFEF7D1FA074625480068FA
:102B8000C0F3CB30684338E0701C37D0FEF7C6FA8C
:102B9000C01BA84203D215B1009860B32CE0206896
:102BA000416821F0E00141606068B0F5827F0BD19F
:102BB000A068B0F5004F02D0B0F5806F04D1206856
:102BC000016821F040010160A06AB0F5005F09D101
:102BD0002068016821F4005101602068016841F417
:102BE00000510160012084F85100002084F8500059
:102BF0000320BDE8F8830025401E0090206881680E
:102C000038EA010004D000214945BDD10020F0E799
:102C10000121F9E76C0000202DE9F04107461C4630
:102C200015460E462A2000F0A9FBDFF8608001223D
:102C300040214046FEF76DFA380A00F0BBFB7F1CCE
:102C4000F8B200F0B7FB280A00F0B4FB6D1CE8B244
:102C500000F0B0FB2B2000F091FB01224021404608
:102C6000FEF757FA300A00F0A5FBB61CF0B200F0F0
:102C7000A1FB200A00F09EFBA41CE0B200F09AFB2E
:102C8000BDE8F0412C2000F079BB0000000C0140B1
:102C90002DE9F047DFF86090070AC6B24FF400480C
:102CA000002241464846FEF734FA144C0021608861
:102CB000401E83B22088401E82B20846FFF7ACFF58
:102CC000012240210E48FEF724FA002507E038468D
:102CD00000F070FB304600F06DFB6D1CADB220883B
:102CE00061884843A842F2DC41464846BDE8F047C7
:102CF0000122FEF70EBA000000080140E2000020A9
:102D0000000C01402DE9F84F0D468046DDE90B101F
:102D100014460A0A0A9E01F0FF0B4FEA102A00F03F
:102D2000FF0900921F4600224FF400411E48FEF7A3
:102D3000F0F9E819401E83B208EB0400401E82B28D
:102D400029464046FFF768FF012240211748FEF759
:102D5000E0F900257C43E01704EB507819E000BF50
:102D600016F8017B5FF0000407FA04F0000604D5B2
:102D7000009800F01FFB584603E0504600F01AFB95
:102D8000484600F017FB641CA4B2082CECD36D1C61
:102D9000ADB2B5EBE80FE3DBBDE8F84F0122D1039C
:102DA0000148FEF7B6B9000000080140000C0140E0
:102DB0002DE9F047DFF858A014460D4607464FF4BA
:102DC00000494FEA1328DEB2002249465046FEF77A
:102DD000A0F923462A4619463846FFF71DFF01226F
:102DE00040210C48FEF795F90024ED1B07E0404612
:102DF00000F0E0FA304600F0DDFA641CA4B2A5420F
:102E0000F5DA49465046BDE8F0470122FEF781B9A0
:102E100000080140000C014070B50122474DD40369
:102E200021462846FEF775F9454E0122802130469D
:102E3000FEF76FF90120FEF765F800228021304689
:102E4000FEF767F90120FEF75DF801228021304688
:102E5000FEF75FF9012221462846FEF75AF90120C4
:102E6000FEF750F8002221462846FEF752F91120BD
:102E700000F084FA0120FEF745F8B12000F07EFA58
:102E8000012240213046FEF744F9052000F092FA75
:102E90003C2000F08FFA3C2000F08CFAB22000F0C9
:102EA0006DFA012240213046FEF733F9052000F08B
:102EB00081FA3C2000F07EFA3C2000F07BFAB3203F
:102EC00000F05CFA012240213046FEF722F905208D
:102ED00000F070FA3C2000F06DFA3C2000F06AFA35
:102EE000052000F067FA3C2000F064FA3C2000F076
:102EF00061FAB42000F042FA032000F04DFA3A20C3
:102F000000F03CFA052000F047FA202000F036FAE5
:102F1000132000F033FA262000F030FA012000F0F0
:102F20003BFA292000F02AFA012221462846FEF722
:102F3000F0F8BDE87040022000F004B8000801403D
:102F4000000C014070B5154E04464FF400450022B8
:102F500029463046FEF7DDF8362000F00FFAA021B2
:102F60000F4A8020012C07D0022C09D01080032C9E
:102F7000518011D0002006E011805080A02002E096
:102F800011805080602000F007FA29463046BDE8E5
:102F900070400122FEF7BDB8C020F4E700080140F0
:102FA000E20000202DE9FE4F05460C984FEA132A57
:102FB00003F0FF084FEA1029C6B20C4602EB4200AC
:102FC000364BA2F1200100EBC20018445F290BD858
:102FD000A0F5C070016A0091416A0191018DADF8C0
:102FE000081090F82A0010E0A02A03D3A0F5307052
:102FF000016803E02948403050F8601F00914168A3
:1030000001910189ADF80810807A8DF80A004FF41B
:10301000004B002259462248FEF77BF804F10B00D2
:1030200083B2E81D82B221462846FFF7F5FD012252
:1030300040211C48FEF76DF800256F460024785D9E
:10304000E040C00704D0504600F0B4F9404603E029
:10305000484600F0AFF9304600F0ACF9641CA4B269
:10306000072CECD3484600F0A5F9304600F0A2F951
:103070006D1CADB20B2DE1D30024484600F09AF947
:10308000304600F097F9641CA4B2082CF5D3012255
:1030900059460348FEF73DF8BDE8FE8FF46400088A
:1030A00000080140000C01402DE9F05F05460A9838
:1030B00016460C464FEA102900F0FF084FEA132B82
:1030C00003F0FF0A00224FF400411C48FEF721F8EC
:1030D00004F1230083B205F11F0082B22146284685
:1030E000FFF79AFD012240211548FEF712F8154915
:1030F00006EBC600002501EB00175FF000047E5DC3
:1031000006FA04F0000604D5584600F053F950467C
:1031100003E0484600F04EF9404600F04BF9641CCD
:10312000A4B2082CECD36D1CADB2902DE5D3BDE854
:10313000F05F0122D1030148FDF7EBBF0008014019
:10314000000C0140346D00082DE9F84399461646FD
:103150000D460446104FDDF8208018E04B46294606
:103160002046761CCDF80080FFF71CFF3888083811
:10317000844202DA0834E4B209E078884FF00004AF
:103180000C38854202DA0C35EDB200E000253278C9
:10319000002AE3D1BDE8F883E20000202DE9FE43D8
:1031A00098460A9E150089460446009605D50B22CE
:1031B000FFF77AFF684205B202E00A22FFF774FFC8
:1031C000642795FBF7F104F1200079B395FBF7F143
:1031D000CAB2434600964946FFF766FF95FBF7F0F3
:1031E00007FB10500A2790FBF7F0C2B204F1400031
:1031F000434649460096FFF757FF0F49CDE90018AF
:1032000004F160002423102202964946FFF77AFD5C
:1032100095FBF7F007FB1050C2B27034A0B24346E2
:1032200049460096FFF740FFBDE8FE83FFE74346AF
:103230000A220096CFE70000F47300082DE9F84F4A
:103240004FF47A770A9E994615468A460446BA4252
:1032500002D20A22009604E0B5FBF7F0C2B2204683
:103260000096FFF721FF4FF0640804F12000642D61
:1032700003D24B460A22009608E0B5FBF7F107FBA4
:103280001152B2FBF8F1CAB24B4600965146FFF715
:103290000BFF0A2704F140000A2D03D24B460A22F5
:1032A000009607E0B5FBF8F208FB1251B1FBF7F20C
:1032B0004B4600965146FFF7F7FEB5FBF7F007FBCC
:1032C000105204F160004B4651460096FFF7ECFEA9
:1032D000BDE8F88F2DE9F0411746069D98460C464B
:1032E0000A4606462B463946FFF762FD2B46424604
:1032F00039463046FFF75CFD2B46424621463046B4
:1033000000F008F82B46424621463846BDE8F04119
:10331000AFF300802DE9F047DFF858A015460F46BF
:1033200004464FF400494FEA1328DEB20022494612
:103330005046FDF7EEFE22462B4639461046FFF773
:103340006BFC012240210C48FDF7E3FE0024ED1B3D
:1033500007E0404600F02EF8304600F02BF8641CE1
:10336000A4B2A542F5DA49465046BDE8F04701222D
:10337000FDF7CFBE00080140000C014010B5044627
:10338000002240210348FDF7C4FE2046BDE810405E
:1033900000F010B8000C014010B504460122402195
:1033A0000348FDF7B6FE2046BDE8104000F002B825
:1033B000000C014001B501231A4669460148FEF799
:1033C00099FA08BD78030020B1F90020824205DC9B
:1033D000B1F90220824201DB88887047B1F90620EA
:1033E000824205DCB1F90820824201DB488970473E
:1033F000B1F90C20824205DCB1F90E20824201DBDA
:10340000088A7047B1F91220824205DCB1F9142014
:10341000824201DBC88A7047B1F91820824205DC7C
:10342000B1F91A20824201DB888B70470020704777
:10343000B1F90020824205DCB1F90220824201DBB1
:1034400088887047B1F90620824205DCB1F908206E
:10345000824201DB48897047B1F90C20824205DCC9
:10346000B1F90E20824201DB088A7047B1F91220BF
:10347000824205DCB1F91420824201DBC88A704720
:10348000B1F91820824205DCB1F91A20824201DB31
:10349000888B7047002070471CB507A142F210735B
:1034A000D1E90001CDE90001072269460448FEF791
:1034B00053FF00201CBD0000424DE40000017300DA
:1034C000580400200024DFF86C90DFF86CA01B4D3E
:1034D0001B4E1C4FDFF87080A34600BFFFF754FA65
:1034E000012804D0022805D0032813D105E0FFF7F6
:1034F000D3FF0FE000F014FC0CE0D9F80010491CD9
:10350000C9F80010072901D3C9F800B0DAF8200083
:1035100001F03EFB641CE4B20A2C00D3002428888E
:10352000143830803888A8F80000642001F004FBCB
:10353000D4E70000000000203C000020DE00002056
:1035400024000020E000002026000020DFF8B490D6
:10355000DFF8B4A0DFF8B4B02D4E4FF480754FF60D
:10356000FF7440F2E7384FF47A770122294630465B
:10357000FDF7CFFD2748FDF70FFB002814DB25489A
:103580000178427804EA01211144A9F800108178F9
:10359000C27804EA01211144AAF8001001794079A7
:1035A00004EA0121084404E0A9F800804046AAF892
:1035B0000080ABF80000384601F0BEFA0022294630
:1035C0003046FDF7A6FD1448FDF766FA00280FDB2C
:1035D0001148124A0178437804EA01211944118004
:1035E00081780F4AC07804EA01210844108005E080
:1035F0000A49A1F800800A49A1F80080384601F084
:103600009BFAB2E72C0000202E00002030000020A2
:1036100000080140EF000020D80000202800002012
:103620002A00002008B5434E434D444F4FF2BE7868
:1036300000244FF480694FF4FA6A009428684346E6
:10364000082156F820202120FFF77EFD2868072852
:103650004AD2DFE800F0040F28334E5964004B468D
:1036600037A252216E200094FFF76EFD3649DFF835
:10367000DCB009E04B4636A252216E200094FFF7E1
:1036800063FD3149DFF8D0B0BBF8000000B2FFF7AE
:10369000CFFE03460094BBF80000282102B20320AD
:1036A000FFF77CFD20E04B462CA252216E200094B7
:1036B000FFF74AFD2B49DFF8B0B009E04B4627A2DF
:1036C00052216E200094FFF73FFD2849DFF8A0B09B
:1036D000BBF80000FFF778FE03460094BBF800201B
:1036E00028211320FFF7AAFD5146386A01F078FA25
:1036F000A3E74B461FA252216E200094FFF724FD42
:103700001E49DFF87CB0E3E74B461EA252216E2033
:103710000094FFF719FD1D49DFF874B0D8E74B4658
:103720000EA252216E200094FFF70EFD1949DFF81A
:1037300068B0CDE704000020000000203C0000201D
:103740002020202743000000D2740008240000201D
:1037500020202020250000002600002075672F6D06
:10376000330000009674000828000020B47400089C
:103770002A000020202070706D0000003C740008BA
:103780002C00002020207070620000007874000877
:103790002E0000205A7400083000002000F0CCF801
:1037A000012001F0C9F9F9E700F0F2F8012001F079
:1037B000C3F9F9E7034610B50020024603E09C5C1C
:1037C000521C2044D2B28A42F9D310BD10B5502009
:1037D00080F31188BFF34F8FBFF36F8F02F0B2FAFF
:1037E00018B104494FF080500860002080F3118820
:1037F00010BD000004ED00E030B58FB02821684610
:10380000FCF705FD14210AA8FCF701FD01210804BD
:10381000CDE900100024029402250491CDE907505F
:103820004FF4E01009906846FDF742FE0F20CDE905
:103830000A056802CDE90C4002210AA80E94FDF7A2
:103840002BFD0FB030BD70470148FEF721BA0000D4
:10385000A40500200148FEF71BBA0000D003002099
:10386000F0B50268164B174C174D4FF08047984241
:1038700005D0B84203D0A04201D0A84203D122F023
:1038800070064A683243984205D0B84203D0A0423D
:1038900001D0A84203D122F44074CA6822434C6983
:1038A00022F08002224302608A68C2620A68826251
:1038B000984201D10969016301214161F0BD000015
:1038C000002C0140000400400008004010B584684E
:1038D00042EA032224F47F440A432243826010BD5B
:1038E000826822F070020A4342F00701816070474B
:1038F00010B5036A046A24F001040462846924F0A8
:10390000F00444EA021423F00A020A4384610262CA
:1039100010BD10B5036A23F0100303628369046AC3
:1039200023F4704343EA023224F0A00343EA011176
:103930008261016210BD00001CB5114C00201149CC
:10394000207001221048FEF7B7FC104E4FF0FF37F1
:103950003946306801F044F9E1786846FCF782FFA7
:103960000128F5D16946A068FCF7C0FF054620791B
:1039700001F0E2F8034829462030FEF76DFFE7E743
:10398000F8000020521300201804002050000020EE
:1039900000252C4600F082FE142001F0CDF8FFF740
:1039A000A2F8184E002807DA002030704EF6602486
:1039B000204601F0C1F8FBE70120134F30704FF4AF
:1039C000FA6800BFFDF7D2F8B84202D00025708037
:1039D00006E06D1CEDB20A2D02D30025FFF783F837
:1039E000FDF7B0F8B84202D00024B08006E0641CB5
:1039F000E4B20A2C02D30024FFF775F8404601F028
:103A00009BF8DFE7DC00002019FCFFFF1FB51B4C13
:103A10002068016841680391016841680391016869
:103A2000416803910168416803916FF040010160B2
:103A300013A242F2107307CA8DE8070009226946F3
:103A40002046FEF789FC21686FF0200008604FF4E3
:103A5000967309220D492046FEF7D0FB0B480178EA
:103A6000422905D14178782902D18078012803D0F4
:103A70004FF0FF3004B010BD0020FBE79804002099
:103A80004278040000000000FF0000003E13002008
:103A900010B5406A0021C185C184FEF7C6F910BD8A
:103AA00070B5446A2068406994F83910C0F3C010BA
:103AB0000025212904D118B1E584204600F03FF803
:103AC0002068406994F83A10C0F38010222904D18C
:103AD00018B1E585204600F024F8E06B40F01000B6
:103AE000E0632046FEF7A1F970BD10B50146406ABB
:103AF0000968096889060CD40021C18401684A69F3
:103B000022F080024A610068C16841F04001C16052
:103B100010BDFEF7BBFC10BD10B5406AFEF7C0FC3F
:103B200010BD0168CA6822F49072CA6001684A69CF
:103B300022F001024A61202180F83A1070470168A2
:103B4000CA6822F0C002CA60202180F8391070478C
:103B500010B590F83A10222901D0022010BD8268D9
:103B60004FF480539A4201D1016921B1816A9A428E
:103B70001BD04AB10AE00268816A5268C2F30802A7
:103B80000A80816A891C08E0026972B10268526881
:103B900002F07F020A70816A491C8162C18D491E50
:103BA0000904090CC18503D016E002685268F1E7E8
:103BB0000168CA6822F02002CA600168CA6822F45B
:103BC0008072CA6001684A6922F001024A612021BC
:103BD00080F83A10FEF79AFB002010BD70B504463D
:103BE00000680169E26821F44051114301612169D3
:103BF000A0680843616908432168CA6841F20C6300
:103C00009A430243CA6020684169A26921F4407165
:103C1000114341611E492068884202D1FDF702FC30
:103C200001E0FDF7EFFB00EBC00101EB0012606863
:103C300064218000B2FBF0F3B3FBF1F36FF01806E0
:103C40007343B2FBF0F5B2FBF0F605EB83053223CC
:103C500003EB0515B5FBF1F5B6FBF1F605F0F00544
:103C600005EB0615B2FBF0F6B2FBF0F0B0FBF1F09D
:103C70006FF01802504306EB800003EB0010B0FB1E
:103C8000F1F0216800F00F002844886070BD00004A
:103C9000003801402DE9F041984617460E4604468B
:103CA000069D1DE0681C1BD02DB1FDF737FAA0EB77
:103CB0000800A84214D92068C16821F4D071C160FD
:103CC0002068416921F001014161202084F8390018
:103CD00084F83A00002084F838000320BDE8F08121
:103CE0002068006836EA000004D00020B842D9D02D
:103CF0000020F3E70120F9E70148FEF797B800003C
:103D0000180400200148FEF791B800005804002074
:103D10000148FEF78BB8000098040020FEE7000081
:103D20001CB507A142F21073D1E90001CDE90001F1
:103D3000072269460448FEF70FFB00201CBD000067
:103D4000424DE40001017400580400200FB4084BF8
:103D500010B504A902AA039800F0EEF8044602A9DF
:103D6000002000F080FC204610BC5DF814FB000031
:103D7000674600080907090E002804DB00F1E0206F
:103D800080F80014704700F00F0000F1E02080F888
:103D9000141D704702E008C8121F08C1002AFAD19A
:103DA00070477047002001E001C1121F002AFBD1BB
:103DB000704700002DE9FF5F82B00021DDE904308B
:103DC000020DDDF840B0034318D044F61050A2F2C3
:103DD000FF3242431514119801281FD0A5EB0B00A8
:103DE000401C5FEA000A4FF000064E4FDFF83891A2
:103DF000B046504615D5CAF1000413E011980124CD
:103E00004AA3012801D16FEA0B010298119AC0E977
:103E10000031C0E9024206B0BDE8F09FCBF10000DE
:103E2000DFE704460021404A491842EB0450CDE93F
:103E3000001012E0E00707D032463B4640464946B4
:103E4000FCF76FFB8046894632463B4610461946D2
:103E5000FCF767FB06460F466410002CEAD1DDE94B
:103E60000401DDE90023BAF1000F06DAFCF759FB83
:103E700042464B46FCF755FB05E0FCF7C4FB4246C7
:103E80004B46FCF7C0FB04460E460022284BFCF7CD
:103E900041FC03D84FF0FF30014607E00022254BDC
:103EA00020463146FCF796FAFCF71CFC102409E08A
:103EB000002C0ADB0A220023FCF724FA039B303291
:103EC0001A55641E50EA0102F2D1641C039AC4F12F
:103ED00011031444119A012A03D0012208430DD181
:103EE0000AE0084304D000204FF0110B119072E754
:103EF000A3EB0B056D1E0DE05B4504DD4FF00002EA
:103F000005F1010504E003DA4FF00002A5F1010517
:103F1000002AECD002981199C0E90231C0E90045AD
:103F200079E70000000014400000F03F300000007E
:103F30000000F0430000E03F2DE9FF4F95B09B46A5
:103F40008946064600250FE2252877D1002427461A
:103F5000F84A0121059400E0044316F8013F203B94
:103F600001FA03F01042F7D130782A2811D06FF00F
:103F70002F033078A0F13002092A16D8059A44F0B0
:103F8000020402EB820203EB42021044761C05900D
:103F9000EFE759F8042B0592002A03DA504244F463
:103FA0000054059044F00204761C30782E2816D177
:103FB00016F8010F44F004042A280DD06FF02F02E8
:103FC0003078A0F13003092B09D807EB870302EB07
:103FD0004303C718761CF3E759F8047B761C307846
:103FE0006C280FD006DC4C2817D068280DD06A2822
:103FF00014D104E0742810D07A280FD10DE044F4D5
:1040000000140AE044F4801401E044F4401472788F
:10401000824202D104F58014761C761C3078662822
:104020000BD013DC582877D009DC002875D0452840
:10403000F6D04628F4D047281AD19DE118E063282D
:1040400035D0642879D0652812D195E1702873D0D5
:1040500008DC6728F1D069286FD06E280DD06F2852
:1040600006D1B5E073282CD0752875D0782874D087
:104070005A46179990476D1C75E1C4F30250022807
:1040800009D003280DD0D9F8001004280DD00D60F8
:1040900009F1040967E1D9F80010EA17C1E90052F3
:1040A000F6E7D9F800100D80F2E70D70F0E719F887
:1040B000041B8DF8001000208DF80100EA46012055
:1040C00003E059F804AB4FF0FF3061074FF00001F7
:1040D00002D40DE008F101018846B9420FDA8045AB
:1040E000F8DB1AF808100029F4D108E008F1010102
:1040F00088468142FADB1AF808100029F6D10598A3
:104100005B46A0EB080721463846179A00F094FA60
:10411000284400EB080507E04DE029E10DE01AF81E
:10412000010B5A4617999047B8F10108F7D25B4640
:1041300021463846179A13E142E00A220092C4F35E
:1041400002524FF0000A022A08D059F804CB032A81
:104150004FEAEC710AD00DE029E02AE009F10701ED
:1041600021F00702F2E802C1914609E00FFA8CFC47
:104170004FEAEC71042A03D14FFA8CFC4FEAEC7140
:10418000002907DA0A460021DCF1000C61EB02018C
:104190002D2202E0220504D52B228DF804200122D5
:1041A00003E0E20701D02022F7E7904659E00A2118
:1041B00002E010220DE010214FF0000A00910BE008
:1041C00010224FF0000A44F004040827009203E094
:1041D00008224FF0000A0092C4F30252022A05D0CE
:1041E00059F804CB0021032A08D009E009F107019E
:1041F00021F00702F2E802C1914605E01FFA8CFCAB
:10420000042A01D10CF0FF0C4FF00008220728D53A
:10421000702806D0009B83F0100353EA0A0305D0F0
:104220000EE040228DF80420012208E05CEA010241
:1042300006D030228DF804208DF805000222904629
:10424000009B83F0080353EA0A030AD15CEA0102E7
:1042500001D1620705D530228DF804204FF0010806
:104260007F1E582804D034A003900EA802900DE0C1
:1042700036A0F9E753466046009AFCF743F88446B7
:104280000398825C0298401E029002705CEA010072
:10429000F0D1029806A9081A00F1200A600702D599
:1042A00024F4803400E00127574502DDA7EB0A0023
:1042B00000E0002000EB0A01009005984144401AFC
:1042C0000590E00306D45B462146179A059800F056
:1042D000B3F90544002706E001A85A46C05D1799C6
:1042E00090476D1C7F1C4745F6DBE0030CD55B4611
:1042F0002146179A059800F09FF9054404E0302004
:104300005A46179990476D1C0099481E0090002945
:10431000F5DC08E0029802995A460078491C02919F
:10432000179990476D1CBAF10001AAF1010AF1DC5E
:1043300065E1000009280100303132333435363769
:1043400038396162636465660000000030313233E1
:104350003435363738394142434445460000000081
:1043600000F058F90544761C307800287FF4ECAD55
:1043700019B02846BDE8F08F620700D4062709F17E
:10438000070222F0070CFCE80223E14603F0004894
:104390005FEA080C02D00FF2702C0DE05FEA045CBB
:1043A00002D50FF2682C07E05FEAC47C02D00FF25E
:1043B000602C01E0AFF2700C4FF0FF3823F00043A7
:1043C000CDF850C065280CD006DC452809D0462819
:1043D0001DD047283DD13DE0662818D067287ED102
:1043E00038E00021112F01DB112000E0781CCDE91D
:1043F000000106A90EA8FFF7DDFCDDE90F010E9A0A
:1044000003910021009207F1010A04914DE04FF061
:1044100000400097CDE9011006A90EA8FFF7CAFCDD
:10442000DDE90F0203920E9B11990022DDF80CA02A
:104430000093049211B9791C00EB010AB7EB0A0052
:1044400004D4C0F1FF3007F1010A0490AAEB070081
:10445000019044E0012F00DA01270021112F01DD36
:10446000112000E03846CDE9000106A90EA8FFF7AB
:10447000A1FCDDE90F010E9A039100210491009245
:10448000BA4621070CD40399514500DA8A46BAF19D
:10449000010F05DD009AAAF10101515C302908D015
:1044A000B84202DA10F1040F06DA0121CDE9011059
:1044B00015E0AAF10101E9E7002805DC04990144AF
:1044C0000491AAEB000102E0411C514500DD8A463F
:1044D0000499401A401C01904FF0004002902007C0
:1044E00004D40198504501DBCDF8048000208DF8FC
:1044F0004F0002980DF14F07B0F1004F25D02B204F
:104500000E9002984FF0020800280CDA4042029008
:104510002D200E9007E00A210298FBF7DDFE3031D6
:10452000029007F8011DB8F10001A8F10108F2DCC2
:1045300002980028EFD1791E0E980870307800F0AC
:10454000200040F0450007F8020D12A8C01B00F142
:1045500007081498007800B1012000EB0A010198C7
:1045600001EBE07105984144401A401E0590E003BC
:1045700006D45B462146179A059800F05DF805447D
:104580001498007818B15A46179990476D1CE003AB
:1045900024D55B462146179A059800F04DF805444E
:1045A0001CE00498002807DBDDE90301884203DDF5
:1045B0000098405C179901E0179930205A469047BF
:1045C000049805F10105401C04900198401E0190DB
:1045D00004D12E205A46179990476D1CBAF100015C
:1045E000AAF1010ADDDC05E017F8010B5A4617991C
:1045F00090476D1CB8F10001A8F10108F4DC5B469E
:104600002146179A0598ABE62D0000002B0000000C
:10461000200000002DE9F041044600251E46174603
:10462000880404D405E039462020B0476D1C641E80
:10463000F9D52846BDE8F0812DE9F0410446002572
:104640001E469046C80301D5302700E02027880485
:1046500004D505E041463846B0476D1C641EF9D5C7
:104660002846BDE8F0810A68531C0B601070704743
:104670002DE9F041084D4FF400742C6000F036F83D
:104680002F1F66103E6000F031F82E6000F02EF80B
:104690003C60BDE8F0810000140C0140114800B5F9
:1046A000816985B041F004018161816901F00401F3
:1046B0000491816941F0040181618069694600F0DB
:1046C000040004904FF440700090112001900020ED
:1046D0000290032003900448FCF726FC00F084F8C5
:1046E00005B000BD00100240000C01400020401C3D
:1046F000C0B20A28FBD3704770B5084C4FF4007065
:104700002060FFF7F3FFA5152560FFF7EFFF201DE1
:104710000560BDE87040FFF7E9BF0000100C0140E4
:104720002DE9F0470F4F0024DFF838802546A8F127
:104730000808BE1507F104096006040E3E60FFF785
:10474000D5FFD8F80000800501D5641CE4B2C9F893
:104750000060FFF7CBFF6D1CEDB2082DECD32046B7
:10476000BDE8F087100C01402DE9F047DFF84890D4
:10477000054600244FF480774FF40078A9F1040631
:104780002806404601D5306001E0C9F80000FFF777
:10479000ADFF3760FFF7AAFFC9F80070072C01D101
:1047A000C6F800806806050EFFF7A0FF641CE4B29F
:1047B000082CE5D3BDE8F087140C014070B509481A
:1047C0004FF40075056084150460FFF78FFF054EF8
:1047D000361D3560FFF78AFF3460BDE87040FFF793
:1047E00085BF0000100C014070B506484FF40074FE
:1047F0000460044D80152D1F2860FFF777FF2C60A3
:1048000070BD0000140C014070B50C4C4FF40070EA
:104810002060FFF76BFFA5152560FFF767FF0748CE
:1048200008380068800501D5012400E00024034811
:10483000001D0560FFF75AFF204670BD100C0140B7
:10484000EFF30580002800D00120704708B5FCF781
:1048500073FCFEF7D1FFFDF7E3FEFDF755FEFDF714
:10486000A5FFFDF7BFFFFDF7D9FFFDF749FFFDF7F6
:104870006BFF9B4C00259B4925816581A581258087
:104880006580A580E58020460860FDF70BFE964810
:10489000FDF766F9FEF7C0FA0020FEF7F9F90020EF
:1048A000FEF7F6F94FF4784600217F239F22084651
:1048B0000096FEF70FFD01217E239E2208460096FA
:1048C000FEF708FD33461A229E210120FEF770FAFA
:1048D000864E012211033046FCF71BFC41F2883062
:1048E000FCF710FBFDF703FEFDF7F4FD4FF4FA7043
:1048F000FCF708FBFDF72EFE00F025F94FF6FF7AD6
:1049000042F20F79B3464FF47A780122160231460B
:104910005F465846FCF7FDFB7548FCF73DF900285B
:1049200012DB7348027843780AEA02221A44228191
:104930008278C3780AEA02221A44628102794079B5
:104940000AEA0221084404E0A4F808904846A4F8C2
:104950000A90A081002231463846FCF7DAFB654810
:10496000FCF79AF800280CDB6248027843780AEAE0
:1049700002221A44A2808278C0780AEA02210844FE
:1049800002E04846A4F80490E0804046FCF7BAFAFA
:10499000002231463846FCF7BCFB5748B0F900000E
:1049A000FBF77EFC554E3146FBF73CFCFBF781FCE8
:1049B00002464B480B4652A10E30FFF7C7F9484A52
:1049C0004FF2BE773B460E32082168200095FEF775
:1049D000BBFB4D48B0F90000FBF762FC3146FBF72A
:1049E00021FCFBF766FC02463D480B4647A10E3012
:1049F000FFF7ACF93A4A3B460E3221215820009588
:104A0000FEF7A2FB3648228942A10E30FFF79EF93D
:104A10003B4642A23A2130200095FEF795FB304AF2
:104A20003B460E323A2130200095FEF78DFB2C4894
:104A300062893DA10E30FFF789F93B4638A2532128
:104A40002F200095FEF780FB254A3B460E3253216E
:104A50002F200095FEF778FB2148A28932A10E3065
:104A6000FFF774F93B462EA253217C200095FEF7F8
:104A70006BFB1B4A3B460E3253217C200095FEF710
:104A800063FB1748A28828A10E30FFF75FF93B4669
:104A900023A26C212F200095FEF756FB104A3B46BF
:104AA0000E326C212F200095FEF74EFB0C48E28859
:104AB0001DA10E30FFF74AF93B4619A26C21752063
:104AC0000095FEF741FB064A3B460E326C217520ED
:104AD0000095FEF739FB4046FCF714FA15E7000095
:104AE0002400002000010020D00300200008014025
:104AF000EF000020D8000020DE0000200000204150
:104B0000252E316620430000E0000020252E31666E
:104B10002025250025642070706D000020202020B5
:104B20002020202000000000256400000146002015
:104B3000842900D0C81C704710B500B9012000F0CE
:104B40005DFC002010BD10B500F0F8FC002010BD89
:104B500038B543684BB1012909D1032000220090E8
:104B60001146012000F0CEFD38BD012901D0002002
:104B700038BD03220021012000F0A0FD040004D074
:104B800000231A46194600F035FE204638BD0000C5
:104B900038B5002405460094FFF752FE90B16946EF
:104BA000284600F0D7FE012801D0FF2038BD00982C
:104BB00088B10A494FF080500860BFF34F8FBFF3B0
:104BC0006F8F08E000231A461946284600F012FEAF
:104BD000012800D0FF24204638BD000004ED00E08D
:104BE00038B505004FF0000000900FD00024481C9D
:104BF0000ED001B10C46FFF723FEB8B16A46002182
:104C0000284600F0F5FE012816D104E0802038BDCA
:104C10004FF0FF34EFE7009880B109494FF0805022
:104C20000860BFF34F8FBFF36F8F07E02146284620
:104C300000F02CFF012801D0FF2038BD002038BD36
:104C400004ED00E07FB50D4604464169B0F9080067
:104C500081B1A16971B1FFF769FFD4E905128DE84F
:104C60000700D4E900102B46226901F032F80390C6
:104C700004B070BDFFF75AFF03A9CDE90001208AF7
:104C80002B4682B2D4E9001000F0F6FF012801D0D3
:104C90000020EDE70398EBE72DE9F041184C0F46B3
:104CA000054666692068001D00F0BAFA38B9206828
:104CB00090F82C1001208840A1698143A161681CF3
:104CC00007D137B12168BDE8F0410E48091D00F059
:104CD000EBBA20683544B5424560216805D2A0682A
:104CE000BDE8F041091D00F0C7BA6068091D00F079
:104CF000C3FA206B854200D22563BDE8F081000035
:104D000070000020C80600202DE9F041054600F0A3
:104D1000D7FA2E4C2069401C206120682C4F10B11E
:104D2000E06940B32DE025602069012829D10026E3
:104D300006EB860007EB800000F090FA761C072E49
:104D4000F6D323488C3000F089FA2148A03000F0D7
:104D500085FA1F48B43000F081FA1D48C83000F0D1
:104D60007DFA1B48DC3000F079FA19488C3060601D
:104D70001430A06005E02068E96AC06A884200D863
:104D80002560E06A401CE062E96A0120A26988406F
:104D90001043A06101EB810007EB8000291D00F0AA
:104DA00083FA00F0ADFAE06900280CD02068E96AC7
:104DB000C06A884207D207494FF080500860BFF3AD
:104DC0004F8FBFF36F8FBDE8F081000070000020AF
:104DD000EC05002004ED00E030B4026C0B46002A24
:104DE0000BD0C1681144C1604468A14201D301687D
:104DF000C16030BC1846FBF7F1B930BC70472DE9F3
:104E0000F041856B174604460026026C82B1C7B19B
:104E1000E068FBF7E3F9E168206C091AE1602268B9
:104E2000914202D26168081AE060022F16D017E0A2
:104E30002068A8B9606800F0E9FF064600206060BD
:104E40000EE0A068FBF7CAF9216CA0680844A060D6
:104E50006168884204D32068A06001E005B16D1E3E
:104E60006D1CA5633046BDE8F08110B5044690F88E
:104E7000510058B101280CD002280FD0502080F3E7
:104E80001188BFF34F8FBFF36F8FFEE7206B00F0E9
:104E90004BFA2046BDE8104000F046BA10BD0000B5
:104EA00010484FF44461420706D0C01D0D4920F060
:104EB0000700411AC1F544610B4A00230144C2E9CD
:104EC00000030839103A21F0070111604B600B60B4
:104ED0000B1AC0E9001393604FF000405360D0609C
:104EE00070470000DC060020BC000020144E154C6A
:104EF000A6F1C8074FF08058DFF84C9012E000BFD1
:104F000000F0DEF9F068C568281D00F089F9206915
:104F1000401E2061E068401EE06000F0F1F9284684
:104F2000FFF7A3FFE0680028EAD138680128F9D923
:104F3000C9F80080BFF34F8FBFF36F8FF2E7000017
:104F4000B40600207000002004ED00E00346009845
:104F500029B10260C0E90F31012100F007BC0060F7
:104F6000F8E72DE9F0479A46DDE9098481466FF0BC
:104F70000303206B03EB82021044089D20F0070618
:104F8000700707D0502080F31188BFF34F8FBFF315
:104F90006F8FFEE723180A5C83F834200A5C12B195
:104FA000401C1028F6D3002784F84370072D00D347
:104FB0000625E562C4E91157201D00F05AF904F1F5
:104FC000180000F056F92461C5F107006462A06181
:104FD000E76484F8507052464946304600F00EF9B6
:104FE0002060B8F1000F01D0C8F80040BDE8F0879C
:104FF00030B5114900E011460A688242FBD34B6884
:105000005C18844203D140681844486008464368ED
:105010001C18944209D1084C103C2468A24209D0C3
:1050200052681A4442600A6812680260814200D0E5
:10503000086030BD0460F9E7BC00002010B50446EC
:1050400000F03EF9A06B28B15FF0000400F058F9C1
:10505000204610BD0124F9E706484168096829B1D6
:105060004168C968C9684968016370474FF0FF31FA
:10507000FAE700007000002008484068401C4FF02C
:10508000500080F3118804D0BFF34F8FBFF36F8FB0
:10509000FEE7BFF34F8FBFF36F8FFEE7C400002022
:1050A0002DE9F041044600F00BF994F9455004F164
:1050B000240609E0606A48B1304600F03DFF08B1BF
:1050C00000F0CAF96D1E6DB2002DF3DC4FF0FF3613
:1050D00084F8456000F014F900F0F2F894F94450B7
:1050E00004F1100709E0206948B1384600F024FFB8
:1050F00008B100F0B1F96D1E6DB2002DF3DC84F83B
:105100004460BDE8F04100F0FBB800002DE9F0413B
:105110000546002700F048FA314E306808B9FFF71D
:10512000BFFEF06805424BD1C5B3083568070ED005
:1051300005F00700C0F108000544680707D05020BB
:1051400080F31188BFF34F8FBFF36F8FFEE72DB34E
:105150007068854234D82248103001460C6801E05E
:1051600020460C466168A94202D221680029F7D185
:1051700031688C4224D00768216801606068083774
:10518000411B10290FD96019420708D0502080F325
:105190001188BFF34F8FBFF36F8FFEE710E04160C0
:1051A0006560FFF725FF61687068401A7060B2683B
:1051B000904200D2B060F06801430020C4E90001D1
:1051C00000F0F4FE780707D0502080F31188BFF379
:1051D0004F8FBFF36F8FFEE73846BDE8F0810000C8
:1051E000AC0000200449086818B10868826C521CA1
:1051F00082640868704700007000002010B5031F2B
:105200004FF080741C601B1F21F001011960191FF1
:10521000024B0B60143940380A6010BD7950000809
:10522000D0E9013201699A60D0E901235A604A68E5
:10523000824201D182684A60002202610868401EF1
:105240000860086870470000034B036003F15400D6
:1052500008604020106070472402002000F108011F
:105260004FF0FF32C0E90112C1600161002101600D
:10527000704700210161704730B50B685A1C02D09D
:1052800000F1080202E0026904E022465468256841
:105290009D42FAD953684B6099608A6051600861F9
:1052A0000168491C016030BD42684A6093688B60A8
:1052B00093685960916008610168491C01607047FA
:1052C000502080F31188BFF34F8FBFF36F8F0A49CF
:1052D0004868401C486001280CD10848006810F05C
:1052E000FF0F07D0502080F31188BFF34F8FBFF31B
:1052F0006F8FFEE770470000C400002004ED00E05F
:105300000849486828B1401E486001D180F31188DF
:105310007047502080F31188BFF34F8FBFF36F8F1A
:10532000FEE70000C400002070B5002827D0144D0F
:10533000A0F108046168E868014207D1502080F3B9
:105340001188BFF34F8FBFF36F8FFEE722683AB12A
:10535000502080F31188BFF34F8FBFF36F8FFEE7AC
:105360008143616000F020F9606869680844686002
:105370002046FFF73DFEBDE8704000F017BE70BD4F
:10538000AC0000204FF0E02000210161816105495F
:105390004FF47A720968B1FBF2F1491E41610721AD
:1053A000016170476C00002010B5FAF7F1FE114959
:1053B00010280ED300F1E02090F8F0030A78904214
:1053C00007D2502080F31188BFF34F8FBFF36F8F48
:1053D000FEE709480068896800F4E060884207D960
:1053E000502080F31188BFF34F8FBFF36F8FFEE71C
:1053F00010BD0000C40000200CED00E010B502005C
:1054000014D00F48806B38B1502080F31188BFF35F
:105410004F8FBFF36F8FFEE700F0C6F800211046F4
:10542000FFF73AFC00F0C2FD002807D105494FF014
:1054300080500860BFF34F8FBFF36F8F10BD000027
:105440007000002004ED00E002498A6A02604969A8
:105450004160704770000020014901204862704798
:105460007000002010B50C4650B109490968183188
:10547000FFF702FF2046BDE810400121FFF70CBCFA
:10548000502080F31188BFF34F8FBFF36F8FFEE77B
:105490007000002070B504004BD0A26CA2B1606C0B
:1054A000884200D30146E06A884242D0012A40D1B6
:1054B000204D2A6894420FD1502080F31188BFF309
:1054C0004F8FBFF36F8FFEE7502080F31188BFF33B
:1054D0004F8FBFF36F8FFEE7E162A269002A02DB04
:1054E000C1F10701A161144E00EB8000616906EB78
:1054F000800081421DD1201DFFF792FE012150B98D
:10550000E06A00EB800256F8222022B9AA6901FA6B
:1055100000F08243AA61E06AAA6981401143A9614F
:1055200000EB800006EB8000211DBDE87040FFF716
:10553000BBBE70BD70000020EC05002010B586B029
:105540000024039405AA04A903A80494FFF77CFE91
:10555000DDE903010094CDE9011000230EA11048FC
:10556000059A00F0B6FB0F490028486311D050207F
:1055700080F31188BFF34F8FBFF36F8F4FF0FF3071
:1055800008630120C8614C6106B0BDE8104000F01E
:1055900041B806B010BD000049444C450000000071
:1055A000ED4E0008700000200248816B491C8163A9
:1055B00070470000700000201448816B11B1012178
:1055C00041627047002141628169B1FA81F1C1F104
:1055D0001F0101EB81020E4951F822306BB101EB42
:1055E000820101F108034A6852684A609A4201D177
:1055F00052684A60D16801607047502080F311887A
:10560000BFF34F8FBFF36F8FFEE7000070000020E5
:10561000EC0500201CB5264908780190FF20087091
:1056200008788DF800009DF800009DF8002000F03B
:10563000F000904207D0502080F31188BFF34F8FC5
:10564000BFF36F8FFEE79DF800001A4B00F050008B
:1056500018700720986005E09DF8002052008DF832
:105660000020401E9DF800201206F5D49860032803
:1056700007D0502080F31188BFF34F8FBFF36F8F97
:10568000FEE74FF440709860019808700A4801687E
:1056900041F470010160016841F070410160FFF761
:1056A00071FE00205860FAF73DFD00201CBD00008F
:1056B00000E400E0C400002020ED00E0F8B517464B
:1056C0000E46050014D0DEB105FB06F04830FFF7AA
:1056D0001DFD04000AD0002084F8460004F14802B1
:1056E0003B46314628460094FFF730FC2046F8BD83
:1056F000502080F31188BFF34F8FBFF36F8FFEE709
:105700000020E3E738B5049D18B153B1CAB181B1A7
:1057100020E0502080F31188BFF34F8FBFF36F8FCD
:10572000FEE7502080F31188BFF34F8FBFF36F8FD8
:10573000FEE7502080F31188BFF34F8FBFF36F8FC8
:10574000FEE739B1502080F31188BFF34F8FBFF3CC
:105750006F8FFEE748241C46012384F846302B4611
:105760000094FFF7F3FB204638BD000070B50D46EE
:10577000040025D0FFF7A4FDD4E90F20216802FB27
:10578000001161600021A1632168A1600A46D4E98B
:105790000F01401E00FB0121E16021464FF0FF3068
:1057A00001F8440F487004F110008DB1FFF756FD69
:1057B00004F12400FFF752FDFFF7A2FD012070BDA8
:1057C000502080F31188BFF34F8FBFF36F8FFEE738
:1057D00021690029F0D000F0AFFB0028ECD004498B
:1057E0004FF080500860BFF34F8FBFF36F8FE3E738
:1057F00004ED00E02DE9FF4782B01D468A464FF0D8
:105800000008040003D0BAF1000F08D011E05020C6
:1058100080F31188BFF34F8FBFF36F8FFEE7206CCB
:1058200038B1502080F31188BFF34F8FBFF36F8FD3
:10583000FEE7022D0AD1E06B012807D0502080F34B
:105840001188BFF34F8FBFF36F8FFEE700F06CFA44
:105850003F4F4FF000094FF0805648B9049838B1D7
:10586000502080F31188BFF34F8FBFF36F8FFEE797
:10587000FFF726FDA06BE16B884207D3022D05D010
:105880000498D0B1B8F1000F1AD01EE02A46514654
:105890002046FFF7B4FA616A19B104F1240000F060
:1058A0004BFB20B13E60BFF34F8FBFF36F8FFFF70D
:1058B00027FD012006B0BDE8F087FFF721FD22E0BB
:1058C0006846FFF7C1FD4FF00108FFF719FDFFF72C
:1058D0006BFEFFF7F5FC94F94400401C01D184F8FD
:1058E000449094F94500401C01D184F84590FFF79D
:1058F00007FD04A9684600F085F930B12046FFF79E
:10590000CFFB00F053FB0020D4E7FFF7D9FCA06BDE
:10591000E16B884213D1FFF7F3FC04F11000049906
:10592000FFF7A0FD2046FFF7BBFB00F03FFB002880
:105930009ED13E60BFF34F8FBFF36F8F98E7FFF7A5
:10594000DFFC2046FFF7ACFB00F030FB90E70000E7
:1059500004ED00E070B50E46040009D0206C78B16B
:10596000502080F31188BFF34F8FBFF36F8FFEE796
:10597000502080F31188BFF34F8FBFF36F8FFEE786
:10598000206848B9606838B1502080F31188BFF3AF
:105990004F8FBFF36F8FFEE7FFF706FD5020EFF349
:1059A000118580F31188BFF34F8FBFF36F8FA16B09
:1059B000E06B884218D994F94500491CA163411C49
:1059C00004D0401C84F8450001200EE0606A0028E5
:1059D000FAD004F1240000F0AFFA0028F4D0002E31
:1059E000F2D001203060EFE7002085F3118870BD10
:1059F0002DE9F04790468946040003D0B9F1000F25
:105A000008D011E0502080F31188BFF34F8FBFF30F
:105A10006F8FFEE7206C38B1502080F31188BFF300
:105A20004F8FBFF36F8FFEE7FFF7BEFC5020EFF301
:105A3000118680F31188BFF34F8FBFF36F8FA76B71
:105A4000F7B194F9445049462046FFF7C5F97F1E47
:105A5000A763681C04D06D1C84F84450012010E03A
:105A600020690028FAD004F1100000F065FA00283F
:105A7000F4D0B8F1000FF1D00121C8F80010EDE723
:105A8000002086F31188BDE8F08700002DE9F3437C
:105A9000002683B00400354609D0206C78B1502030
:105AA00080F31188BFF34F8FBFF36F8FFEE7502055
:105AB00080F31188BFF34F8FBFF36F8FFEE700F0C5
:105AC00033F9DFF83C814FF000094FF0805748B9B7
:105AD000049838B1502080F31188BFF34F8FBFF383
