:020000040800F2
:10000000C015002099010008732100086D1E00082A
:100010007121000865080008E52F000800000000B5
:1000200000000000000000000000000001010008C6
:10003000DF0800080000000045010008852C0008CA
:10004000B3010008B3010008B3010008B3010008C0
:10005000B3010008B3010008B3010008B3010008B0
:10006000B3010008B3010008B3010008B3010008A0
:100070009D080008B3010008B3010008B30100089F
:10008000B3010008A9080008B3010008B301000883
:10009000B3010008B3010008B3010008B301000870
:1000A000B3010008B3010008B3010008B301000860
:1000B000B3010008B3010008B3010008B301000850
:1000C000B3010008B3010008B3010008B301000840
:1000D000B3010008B3010008CD2F0008D92F000894
:1000E000B3010008B3010008B3010008DFF80CD029
:1000F00000F028FB00480047993B0008C01500208D
:10010000224B19680868B0E8F00F80F30988BFF344
:100110006F8F4FF0000080F311884EF00D0E704786
:100120000000000006480068006880F3088862B696
:1001300061B6BFF34F8FBFF36F8F00DF00BF00BF0B
:1001400008ED00E0EFF30980BFF36F8F0F4B1A68E3
:1001500020E9F00F106008B54FF0500080F31188CF
:10016000BFF34F8FBFF36F8F04F01AFC4FF0000006
:1001700080F31188BDE8084019680868B0E8F00FFE
:1001800080F30988BFF36F8F704700BF6C000020B9
:10019000EFF3058070470000064880470648004797
:1001A000FEE7FEE7FEE7FEE7FEE7FEE7FEE7FEE727
:1001B000FEE7FEE7EB2C0008ED000008202A04DB38
:1001C000203A21FA02F00021704721FA02F3D040D0
:1001D000C2F12002914008431946704740EA0103EA
:1001E0009B0703D009E008C9121F08C0042AFAD2ED
:1001F00003E011F8013B00F8013B521EF9D27047B1
:10020000D2B201E000F8012B491EFBD27047002258
:10021000F6E710B513460A4604461946FFF7F0FF05
:10022000204610BD30B480EA010202F0004530F0F3
:10023000004221F0004013D090B1C30DD40DC2F3A1
:100240001601C0F31600E41A41F4000140F4000264
:100250007D34914201D3641C00E04900002C02DA95
:1002600030BC002070474FF400000023914201D3BE
:10027000891A034340084FEA4101F7D151B1914235
:1002800002D14FF0004105E002D24FF0010101E040
:100290006FF0010103EBC450284430BC00F063B898
:1002A000C10F80EAE0700844CA079623002100F0DD
:1002B00063B800F0004230F000400AD0C10D01F5F3
:1002C0006071C0F3160042EA0151C20840071143B1
:1002D000704700200146704730B50B4601460020AC
:1002E0002022012409E021FA02F59D4205D303FAF8
:1002F00002F5491B04FA02F52844151EA2F1010279
:10030000F1DC30BD2DE9F05F0546002092469B46AA
:1003100088460646814640241BE02846414647461B
:100320002246FFF74BFF53465A46C01A914110D35D
:1003300011461846224600F017FA2D1A67EB0108FD
:100340004F4622460120002100F00EFA17EB00096B
:100350004E41201EA4F10104DFDC484631462A4606
:100360004346BDE8F09F0029A8BF7047401C4900E4
:1003700008BF20F00100704710B4B0FA80FC00FA0A
:100380000CF050EA010404BF10BC704749B1CCF135
:10039000200421FA04F411FA0CF118BF01212143C1
:1003A0000843A3EB0C01CB1D4FEA00614FEA10207C
:1003B00042BF002010BC704700EBC350104400291E
:1003C000A4BF10BC7047401C490008BF20F00100CA
:1003D00010BC70472DE9FE4F804681EA0300C00F34
:1003E0000C46009021F0004123F00045B8EB0200DC
:1003F000A94105D24046214690461C460B4602467E
:1004000023F00040104347D0270DC7F30A00C3F381
:100410000A510290401A019040286BDAC3F313008E
:1004200040F4801B0098924620B10023D2EB030ACF
:1004300063EB0B0B01985946C0F14002504600F0A7
:1004400093F906460D4650465946019A00F09BF92D
:1004500010EB08006141002487EA115284EAE77337
:100460001A4340D0009A62B3019A012A4FEA075218
:1004700015DC001B61EB02014FF0004202EA07525B
:10048000CDE90042001C41F5801132462B4600F0B8
:100490009BF903B0BDE8F08F40462146F9E7001B09
:1004A00061EB0201001C41F5801300185B4120182C
:1004B000A2F5001747EB030140EAD570B6196D416C
:1004C00011E06D084FEA360645EAC0754FEA07525B
:1004D000001B61EB0201001C41F5801149084FEA45
:1004E00030000019514132462B4603B0BDE8F04FB1
:1004F00000F05BB90098012240000023D0EB02021B
:1005000063EBE073009821464FEAE074B8EB00001B
:1005100061EB0401E9E783F000435BE781F0004110
:1005200058E72DE9FE4F81EA030404F0004421F06E
:10053000004100944FF0000B23F0004350EA010407
:100540005ED052EA03045BD0C3F30A54C1F30A55E8
:100550002C44A4F2F3340194A0FB0254C1F3130120
:1005600041F48011C3F3130343F4801301FB0244ED
:1005700000FB034E840A970A44EA815447EA8357F2
:10058000A4FB076802958D0A05FB07854FEA932CAB
:1005900004FB0C542705029D4FEA065847EA16371C
:1005A000B5EB08056EEB070C870E920E47EA811734
:1005B00042EA8312A7FB0201B6EB0B0164EB0004D5
:1005C0002B0D43EA0C335E1844EB1C50DA465146BF
:1005D000E7FB0201C5F313044FEA0B3343EA14535C
:1005E0004FEA0432019C43EA0603A4F10C0402948E
:1005F000009CCDE900B400F0E7F803B0BDE8F08F4F
:1006000000200146F9E72DE9F04D81EA030404F0EA
:10061000004B21F0004514464FF0000A23F0004142
:1006200050EA050220D054EA01021DD0C5F30A5752
:100630000246C5F31303C1F31300C1F30A5640F495
:10064000801543F48013A7EB0608101BD64608F26A
:10065000FD3873EB050002D308F1010801E09218A0
:100660005B41B8F1000F03DA00200146BDE8F08DD0
:1006700000204FF48011064684460EE0171B73EBF2
:10068000050705D3121B63EB050306434CEA010C77
:1006900049084FEA300092185B4150EA0107EDD15A
:1006A00052EA030012D082EA040083EA05010843FB
:1006B00005D0101BAB4106D20122002306E0002228
:1006C0004FF0004302E06FF0010253101AEB0600F6
:1006D0004CEB085110EB0A0041EB0B01BDE8F04D6B
:1006E00000F063B8C1F30A52C1F3130140F2FF33C3
:1006F00041F480119A4202DA00200146704740F22C
:1007000033439A42A2F2334202DC5242FFF756BD13
:1007100000F02AB830B5041E71F1000404DB4FF07C
:100720000044404264EB0101141E73F1000405DB38
:100730001C464FF00043524263EB0403994208BF4A
:10074000904230BD064C074D06E0E06840F00103E2
:1007500094E8070098471034AC42F6D3FFF7CAFC80
:100760007861000898610008202A04DB203A00FA2A
:1007700002F1002070479140C2F1200320FA03F3F8
:10078000194390407047202A06DBCB17203A41FAE4
:1007900002F043EAE07306E041FA02F3D040C2F10E
:1007A0002002914008431946704710B5141E73F19A
:1007B000000408DA401C41F1000192185B411A4321
:1007C00001D120F0010010BD2DE9F04D92469B466D
:1007D00011B1B1FA81F202E0B0FA80F22032904613
:1007E000FFF7C2FF04460F4640EA0A0041EA0B0148
:1007F00053465A46084313D0114653EA010019D014
:10080000C8F140025046FFF7D9FC05460E46504657
:1008100059464246FFF7A8FF084305D0012004E0EF
:1008200020463946BDE8F08D0020054346EAE076D3
:100830002C4337430A986305E40AA0EB0800002222
:10084000FD0A44EA47540A3002D500200146E9E790
:10085000010510196941DDE9084500196941BDE844
:10086000F04DA2E7FEE770B504464FF6FF70002397
:100870004AF201050EE014F8012B50400022C60791
:100880004FEA500000D06840521CD2B2082AF6D37A
:100890005B1CDBB28B42EED370BD0000014800F060
:1008A0005FB900008C040020014800F059B9000035
:1008B0004804002030B590F840500124AC40C56B8E
:1008C0006C60046863604368102B036803D0996010
:1008D0000068C26030BD9A600068C16030BD70477A
:1008E000704770B504460020034631250EE014F829
:1008F000012B50400022060602D585EA400000E0A8
:100900004000521CC0B2082AF5DB5B1C8B42EEDBB8
:1009100070BD0000F8B505460021254C084660541E
:10092000491CC9B22029FAD3224E316808684868A8
:100930000090086848680090086848680090086857
:10094000486800906FF04000086007221A4930465E
:1009500001F04AFA31686FF0200008602022144943
:10096000304601F09FF91548C821006803F02CFBC0
:100970002078422819D160784D2816D11E210C48C4
:1009800002F074F980B2E17FC2B291420DD1A17F31
:10099000B1EB102F09D1A0792870E0796870207A26
:1009A000A870607AE8700020F8BD4FF0FF30F8BD05
:1009B000E0000020C80300201300002050000020A9
:1009C00010B5F52001F07AFCA0F57F41FF3907D082
:1009D00020F00F0040F2E241484300143C3810BDC3
:1009E000004810BD19FCFFFF10B5F32001F066FCB4
:1009F000A0F57F41FF3908D020F0030040F2DD610F
:100A000048430014A0F5EA7010BD014810BD000075
:100A100019FCFFFFF8B505460020274C014621547C
:100A2000401CC0B21128FAD3244E306801684168D6
:100A30000091016841680091016841680091016876
:100A4000416800916FF04001016009221C49304665
:100A500001F0CAF931686FF02000086011221649D0
:100A6000304601F01FF91748C821006803F0ACFABE
:100A7000207842281DD160784D281AD10D21A01C64
:100A8000FFF7F1FE80B2E17BC2B2914211D1217C2D
:100A9000B1EB102F0DD1607A2870A07A6870E07ADF
:100AA000A870207BE870607B2871A07B68710020B3
:100AB000F8BD4FF0FF30F8BDCC0000200804002046
:100AC000040000204C00002010B590F821100024F4
:100AD000022903D00421816301243DE001680A68F2
:100AE00022F00E020A6001680A6822F001020A6020
:100AF0001A4A0168914201D1012121E0174A1432BA
:100B0000914201D110211BE0144A2832914201D1B7
:100B1000891515E0114A3C32914201D189140FE048
:100B20000E4A5032914202D14FF4803108E00B4A14
:100B30006432914202D14FF4801101E04FF0807194
:100B4000064A083A5160012180F82110002180F8FE
:100B50002010416B01B18847204610BD08000240BB
:100B60002DE9F05FC16B0C6801680B68D0F840C0DC
:100B7000042202FA0CF2494DDFF824A1494E4A4FF3
:100B8000DFF828B1DFF828E122422CD05A072AD515
:100B90000A68920603D40A6822F004020A60016817
:100BA000A94201D1042219E0514501D1402215E0AA
:100BB000B14202D14FF4806210E0B94202D14FF449
:100BC00080420BE0594502D14FF4802206E0714586
:100BD00002D14FF4800201E04FF080622F490839C2
:100BE0004A60C16A3BE04FF0020808FA0CF818EAC4
:100BF000040F4FF000094FF0010235D05FEA83780F
:100C000032D50B689B0605D40B6823F00A030B60F2
:100C100080F821200168A94201D1022219E0514542
:100C200001D1202215E0B14202D14FF4007210E050
:100C3000B94202D14FF400520BE0594502D14FF4B2
:100C4000003206E0714502D14FF4001201E04FF08E
:100C50000072124908394A6080F82090816A0029A0
:100C60001AD0BDE8F05F0847082505FA0CF52542C3
:100C700012D01B0710D50B6823F00E030B6090F801
:100C80004010C36B02FA01F15960826380F82120A1
:100C900080F82090016BE2E7BDE8F09F0800024079
:100CA0001C00024030000240440002405800024054
:100CB0006C00024030B528B308C813491422194407
:100CC000B1FBF2F18900C1631049816302214177D0
:100CD0001A6843F6F0718A43D0E900142143D0E941
:100CE00002452C432143046921434469214384691B
:100CF00021431143196000214163012242770177AA
:100D0000084630BD012030BDF8FFFDBF00000240A5
:100D100070B5044690F82000002501280CD0012071
:100D200084F8200094F821600020012E06D084F879
:100D300020000225284670BD022070BD022684F8DE
:100D40002160A0632068066826F001060660204640
:100D5000FFF7B0FDE06A00282068016802D041F08A
:100D60000E0106E021F0040101602068016841F0F5
:100D70000A0101602068016841F001010160D9E7C2
:100D800070B5044600F010F90546601C02D0044816
:100D90000078044400F008F9401BA042FAD370BD6B
:100DA0005C0000202DE9F84FDFF8B891002409F12C
:100DB000040A0AF1040B23460F270BF1040EC9E0C5
:100DC0000125A5402A40AA427DD1674ED1F804C032
:100DD000ACEB0608B44532D014DCBCF1030F3AD0BA
:100DE00009DCBCF1000F2AD0BCF1010F1CD0BCF112
:100DF000020F31D11DE0BCF1110F17D0BCF1120F61
:100E00002AD119E0B8F5881F19D006DCB8F5803F63
:100E100015D0B8F5801F1FD111E0B8F5001F0ED016
:100E2000B8F5041F18D10AE0CB6815E0CB681B1D8C
:100E300012E0CB6808330FE0CB680C330CE08B6812
:100E40002BB1012B4FF0080303D0456104E00423CC
:100E500002E0056100E00023FF2A01D8064601E018
:100E600000F104064FEA840501D9A5F12005D6F862
:100E7000008007FA05FC28EA0C0803FA05F548EAA1
:100E80000508C6F800804D68ED0062D5374DAE69A3
:100E900046F00106AE61AD6924F0030605F00105D8
:100EA0000095334D06EB050CDCF80850A607360F0D
:100EB00007FA06F825EA0805DFF8B880404503D1AF
:100EC0004FF0000817E044E0DFF8AC80404502D165
:100ED0004FF001080FE0DFF8A480404502D14FF049
:100EE000020808E0DFF89880404502D14FF003087F
:100EF00001E04FF0040808FA06F848EA0508CCF8C3
:100F000008804D68D9F80060ED034D4601D51643C1
:100F100000E096432E604D68DAF80060AD03554658
:100F200001D5164300E096432E604D68DBF8006063
:100F3000ED025D4601D5164300E096432E604D68F4
:100F4000DEF80060AD02754601D5164300E0964319
:100F50002E60641C0D682A46E5407FF431AFBDE881
:100F6000F88F000000040140000011100010024042
:100F70000000014000080140000C01400010014049
:100F8000001401408068084000D001207047C2680A
:100F900021EA02030A4043EA0241016170470AB1B3
:100FA000016170470904FBE7014880687047000051
:100FB0005C0000200248816802781144816070471B
:100FC0005C000020074810B5016841F01001016085
:100FD000032000F07BF80F2000F006F800F024F862
:100FE000002010BD0020024070B50D4D04464FF4A6
:100FF0007A712878B1FBF0F00A490968B1FBF0F08A
:1010000000F037FC48B9102C07D200222146501EB0
:1010100000F03CF800206C6070BD012070BD000045
:101020005C000020680000200F4808B5816941F08D
:1010300001018161816901F001010091C16941F003
:101040008051C161C069002200F0805000900F21E2
:10105000901E00F01BF80548416821F0E06141F066
:101060000071416008BD0000001002400000014016
:10107000002809DB00F01F02012191404009800097
:1010800000F1E020C0F8001170470000F0B40E4BF2
:101090001B680C46C3F30223C3F10705042D00D9D6
:1010A0000425191D072901D2002300E0DB1E0126BB
:1010B00006FA05F1491E214099409E40761E1640D1
:1010C0003143F0BC01F0FCBF0CED00E0064900F03C
:1010D000070208684FF6FF03184040EA0220034A5F
:1010E00010430860704700000CED00E00000FA05B6
:1010F0002DE9F0470F46050061D0434E306800F0FF
:101100000700B84209D2306820F007003843306049
:10111000306800F00700B84251D128683B4C810785
:1011200012D5400703D5606840F4E060606028781D
:10113000000703D5606840F4605060606068A9688B
:1011400020F0F000084360602878C00728D0686865
:10115000012810D02168022810D0890700292EDA32
:10116000616821F0030101436160FFF71DFF8046C4
:1011700041F288390DE021688903EFE78901EDE745
:10118000FFF712FFA0EB0801494502D90320BDE893
:10119000F0876068696800F00C00B0EB810FEFD158
:1011A000306800F00700B8420BD9306820F0070023
:1011B00038433060306800F00700B84201D00120A9
:1011C000E5E72878400705D56068E96820F4E06025
:1011D000084360602878000706D56068296920F414
:1011E000605040EAC100606000F038F86168084A69
:1011F000C1F30311515CC840064908600648006805
:10120000FFF7F2FE0020C2E700200240001002407B
:10121000286100086800002060000020044805499B
:1012200000684968044AC1F30221515CC840704714
:101230006800002000100240386100080448054999
:1012400000684968044AC1F3C221515CC840704734
:1012500068000020001002403861000812A185B02B
:101260000FC98DE80F0014A0144A0068049051685B
:10127000134801F00C03042B10D0082B0ED1C1F33E
:101280008343C9031DF803000AD5516804AAC1F3BA
:101290004041515C0A4A5043B0FBF1F005B0704741
:1012A00008494843FAE70000020304050607080955
:1012B0000A0B0C0D0E0F101001020000001002406E
:1012C00000127A0000093D002DE9F84F040070D0AB
:1012D0002078C04DC00749D06868C0F3810001285C
:1012E00007D06868C0F38100022809D16868C0038C
:1012F00006D52868800339D560680028E7D035E036
:101300006068B0F5803F0BD010B1B0F5A02F11D0C0
:10131000286820F480302860286820F4802002E0CB
:10132000286840F480302860606890B1FFF73CFE88
:1013300006460AE0286840F480202860F0E700BFF5
:10134000FFF732FE801B642873D828688003F7D526
:101350000CE0FFF729FE064605E000BFFFF724FE7C
:10136000801B6428F0D828688003F7D420789A4E30
:1013700080074FF001094FF0000839D5686810F078
:101380000C0F07D06868C0F38100022809D1686893
:10139000C00306D42868800714D52069012808D125
:1013A00010E02069B0B1C6F80090FFF7FDFD0746D8
:1013B00005E00AE1FFF7F8FDC01B0228C4D8286841
:1013C0008007F7D52868616920F0F80040EAC1007D
:1013D00028600DE0C6F80080FFF7E6FD074604E050
:1013E000FFF7E2FDC01B022823D828688007F7D446
:1013F000207800072CD57948A169D9B1C0F80090B0
:10140000FFF7D2FD074604E0FFF7CEFDC01B022820
:101410000FD8686A8007F7D571484FF4FA51006811
:10142000B0FBF1F0009000BF0098411E0091FAD28D
:101430000EE080E0C0F80080FFF7B6FD074604E04C
:10144000FFF7B2FDC01B022875D8686A8007F7D481
:101450002078400760D5E8690027C00008D4E86913
:1014600040F08050E861E869012700F0805000906A
:101470005C480168C90513D40168834641F4807152
:101480000160FFF791FD824606E000BFFFF78CFD8B
:10149000A0EB0A0064284ED8DBF80000C005F5D5A3
:1014A000E06801280AD008B1052813D0286A20F086
:1014B00001002862286A20F0040002E0286A40F057
:1014C00001002862E06841F2883B98B1FFF76CFDAB
:1014D00082460BE0286A40F004002862EEE700BF75
:1014E000FFF762FDA0EB0A0159455AD8286A800728
:1014F000F6D50CE0FFF758FD824605E0FFF754FDF6
:10150000A0EB0A0159454CD8286A8007F6D41FB1D0
:10151000E86920F08050E861E06988B36968C1F348
:101520008101022944D00228C6F8608004D0FFF768
:101530003BFD044638E034E0FFF736FD074604E0A3
:10154000FFF732FDC01B02282BD828688001F7D492
:10155000206AB0F5803F05D16868A16820F40030AA
:1015600008436860D4E908010843696821F47411EC
:1015700008436860C6F86090FFF716FD044606E071
:1015800025E000BFFFF710FD001B022809D82868DE
:101590008001F7D51BE000BFFFF706FD001B022806
:1015A00002D90320BDE8F88F28688001F4D40EE04A
:1015B0000128F7D06868226A00F48031914204D192
:1015C000616A00F47010884201D00120EAE700202F
:1015D000E8E700000010024000004242800442425E
:1015E000680000200070004070B5040009D0606AF7
:1015F000002540B125616561A56294F8510040B1B4
:101600000CE0012070BD6068B0F5827FF4D0E56128
:10161000F2E784F85050204600F040F8022084F8A9
:1016200051002068016821F040010160A0882189F3
:1016300000F4827001F404410843A18901F40061BF
:101640000843217C01F002010843217D01F00101E2
:101650000843218B01F400710843217F01F0380118
:10166000084394F8201001F080010843218D01F413
:101670000051084321680860A069042101EA104074
:10168000216848602068C16921F40061C161656515
:10169000012084F85100002070BD000000B585B025
:1016A0000021009101910291039100681349884241
:1016B00021D11348816941F480518161816901F42C
:1016C00080510491816941F0080181618069694616
:1016D00000F00800049028200090022001900320D0
:1016E00003900848FFF75EFB0748416841F0E0615E
:1016F00041F00101416005B000BD00000030014033
:1017000000100240000C0140000001402DE9F84F9C
:10171000044690F8500000271D46164689460128C9
:101720000DD04FF0010B84F850B0FFF73DFC804620
:1017300094F85100BA46012804D0022793E0022011
:10174000BDE8F88FB9F1000F73D0002E71D00320DF
:1017500084F85100C4F854A0C4F83090A686E686F8
:10176000C4F838A0A4F83CA0A4F83EA0C4F844A053
:10177000C4F840A0A068B0F5004F09D12068016806
:1017800021F0400101602068016841F4804101605E
:1017900020680168490603D4016841F040010160F6
:1017A000E068B0F5006F606803D030B3012E24D03C
:1017B00041E008B1012E1CD1206B21680088C8606F
:1017C00006E020688168890709D5216B0988C16016
:1017D000206B801C2063E08E401EE08609E0FFF74E
:1017E000E3FBA0EB0800A84202D3681C01D031E063
:1017F0007DB3E08E0028E4D120E0206B21680078E2
:10180000087306E020688168890709D5216B09788B
:101810000173206B401C2063E08E401EE0860AE0CE
:10182000FFF7C2FBA0EB0800A84203D3681C02D05C
:1018300010E017E06DB1E08E0028E3D14246294662
:10184000204600F098FD08B120206065A06818B11E
:1018500006E0FFE7032706E02068C1688068009083
:10186000606D00B1012784F851B084F850A038466B
:1018700066E710B5401EB0F1807F01D3012010BD96
:101880004FF0E02460610F21601701F019FC002087
:10189000A06107202061002010BD704770B502686C
:1018A00004461068D168536910F00F0F52D003F04E
:1018B000010501F490762E435FD0C20705D0CA051A
:1018C00003D5E26B42F00102E263420705D5DA0775
:1018D00003D0E26B42F00202E263820705D5DA0729
:1018E00003D0E26B42F00402E263020707D501F085
:1018F00020022A4303D0E26B42F00802E263E26B6B
:10190000002A33D0800604D5880602D5204601F08F
:1019100089FA20684069E16BC0F38010090700D4A0
:1019200028B3204601F067FA2068416949061AD5B4
:10193000416921F040014161606BA0B12D494163D3
:10194000606BFFF7C1F8002810D0606B416BBDE8F9
:1019500070400847830610D58B060ED52046BDE89B
:10196000704001F05FBA2046FFF797FF70BD204638
:10197000FFF793FF0020E06370BD03062BD50B0635
:1019800029D594F839002128F6D1A068B0F5805FF8
:1019900001D12069B0B1206A411C21622168007820
:1019A0004860E08C401E0004000CE084E4D1206814
:1019B000C16821F08001C1602068C16841F0400128
:1019C000C16070BD206A0088C0F308005060206AC2
:1019D000801C2062E5E74006F3D54806F1D5D168C2
:1019E000204621F04001D160202184F8391000F018
:1019F0003BFA70BD652D000870B5040004D094F862
:101A00003900002510B106E0012070BD84F838507F
:101A1000204600F023F8242084F839002068C168AB
:101A200021F40051C160204601F042FA20680169AA
:101A300021F4904101612068416921F02A0141614E
:101A40002068C16841F40051C160E563202084F83A
:101A5000390084F83A00002070BD00002DE9F04301
:101A600085B0002400940194029403940546036811
:101A70005648554F02210322DFF854810615BB4218
:101A800021D1836943F480438361836903F48043F4
:101A90000493836943F0040383618069039200F037
:101AA000040004900802CDE9000169464046FFF7B2
:101AB00079F9CDE90064694640460294FFF772F96E
:101AC00005B0BDE8F083DFF80CC110274FF08009A6
:101AD000634538D1C36943F40033C361C36903F478
:101AE00000330493836943F00403836180690392A4
:101AF00000F0040004900420CDE90001694640464E
:101B0000FFF750F90820CDE90004694640460294E9
:101B1000FFF748F9314E30483060C6E90174C6E934
:101B200003947461B4613046F461FFF7C3F808B1FF
:101B3000FEF7D6FE2E630022052126207562FFF7F0
:101B4000A5FA26203DE0DFF898C06345B8D1C36907
:101B500043F48023C361C36903F48023049383693E
:101B600043F0080383618069CDE9006100F008005B
:101B7000CDE903201B4E69463046FFF713F9F014F8
:101B8000CDE90004694630460294FFF70BF9134E85
:101B90001148443664383060C6E90174C6E90394DC
:101BA0007461B4613046F461FFF784F808B1FEF760
:101BB00097FE2E630022052127207562FFF766FA43
:101BC0002720FFF755FA7BE700380140001002405C
:101BD000000801400044004080000240480400200A
:101BE00000480040000C01402DE9F84F044690F8F1
:101BF0003A009A4616460D46202851D1EDB1E6B17D
:101C000094F8380001284BD0012084F838000027D0
:101C1000E763222084F83A00FFF7C6F9A6858146DB
:101C2000E685A0684FF48058404501D1206938B15D
:101C30002E46002584F8387027E00120BDE8F88F93
:101C40000026F7E74B46002220212046CDF800A0D1
:101C500001F08AF908B10320F0E726B1A0684045F9
:101C60001BD038B108E020684068C0F3080025F8B0
:101C7000020B07E0206980B12068406800F07F0017
:101C800006F8010BE08D401EE085E08D0028D9D1DB
:101C9000202084F83A000020D0E720684068EFE771
:101CA0000220CBE790F83A30202B22D1F9B1F2B1E3
:101CB00090F83830012B1CD081628285C2850021CA
:101CC000C163222280F83A2080F838100168CA687F
:101CD00042F48072CA6001684A6942F001024A61B6
:101CE0000068C16841F02001C160002070470120F8
:101CF000704702207047000010B50446006809498B
:101D0000884203D10848006802F036F90749206884
:101D1000884205D106480068BDE8104002F02CB9A1
:101D200010BD00000044004050000020004800406A
:101D30004C0000202DE9F843044690F839001F4676
:101D400016460D4620284CD1C5B1BEB194F83800D6
:101D5000012846D0012084F838004FF00008C4F86C
:101D60003C80212084F83900FFF71EF9A6848146C3
:101D7000E684A068B0F5805F03D004E00120BDE8F0
:101D8000F883206928B12E465FF0000584F838807A
:101D90000EE00026FAE78021204601F0E5F8A0B920
:101DA000AEB116F8010B21684860E08C401EE0845B
:101DB000E08C4B464FF0000200970028EBD14FF02B
:101DC0004001204601F0D0F830B10320D7E735F8C4
:101DD000020BC0F30800E6E7202084F83900002059
:101DE000CDE70220CBE7000070B5044690F839003B
:101DF000202830D169B362B394F8380001282AD082
:101E0000012084F838002162A284E2840025E56381
:101E1000212084F83900236B10489862236B104806
:101E2000D862236B0F481863206B134645632668FE
:101E3000206B321DFEF76CFF21686FF040000860D8
:101E400084F838502068416941F0800141610020E8
:101E500070BD012070BD022070BD0000BF2D0008C4
:101E6000ED2D0008752D000870477047FEE710B58E
:101E7000002400F07FF9002801DB002010BD641C65
:101E8000E4B20A2CF5D34FF0FF3010BD10B500249A
:101E900001F0AAF8002801DB002010BD641CE4B2A8
:101EA0000A2CF5D34FF0FF3010BD00000D4808B5E7
:101EB000416941F0010141614069002200F00100E7
:101EC000009005210C20FFF7E1F80C20FFF7D0F877
:101ED000002205211120FFF7D9F8BDE808401120A4
:101EE000FFF7C6B80010024030B52B4DA9B0D5E9B8
:101EF0000001CDE92301012123A802F01DF8274CA0
:101F00006061D5E90201CDE92501012125A802F092
:101F100013F8A061D5E90401CDE92701012127A823
:101F200002F00AF8E0611C2205F118016846FEF78C
:101F300055F90021684602F079F820601C2205F16D
:101F4000340107A8FEF74AF9002107A802F06EF84D
:101F500060601C2205F150010EA8FEF73FF9002138
:101F60000EA802F063F8A0601C2205F16C0115A810
:101F7000FEF734F9002115A802F058F8E0601C22A1
:101F800005F188011CA8FEF729F900211CA802F020
:101F90004DF8206129B030BD846000083400002075
:101FA0002DE9F04385B00024314800940194029457
:101FB0000394816941F010018161816901F0100190
:101FC0000491816941F020018161816901F0200162
:101FD0000491816941F004018161816901F004018A
:101FE0000491816941F0080181618069DFF8848092
:101FF00000F00800049001224FF488714046FEF77B
:10200000CEFFDFF874904FF49E57002239464846C1
:10201000FEF7C5FF00224FF418414046FEF7BFFF10
:102020004FF4C04001258DE83100144E694630461A
:10203000FEF7B8FEE803CDE9000469463046029495
:10204000FEF7B0FE49F610100226CDE90005CDE9F5
:10205000024669464046FEF7A5FE00970396CDE985
:10206000015469464846FEF79DFE05B0BDE8F08381
:102070000010024000080140000C01400010014027
:10208000104810B50E4901604FF482714160002183
:102090008160C1604FF400720161C0E9051208223D
:1020A000C0E90721416281620A21C162FFF79CFAFF
:1020B000002803D0BDE81040FEF712BC10BD0000A0
:1020C00000300140300300200C4810B50A4901607F
:1020D0004FF416514160002181600C22C160C0E9BB
:1020E00004128161C161FFF787FC002803D0BDE8BD
:1020F0001040FEF7F5BB10BD0038014088030020FA
:102100000C4810B50A4901604FF416514160002196
:1021100081600C22C160C0E904128161C161FFF7D6
:102120006BFC002803D0BDE81040FEF7D9BB10BD02
:1021300000440040C80300200C4810B50A49016063
:102140004FF416514160002181600C22C160C0E94A
:1021500004128161C161FFF74FFC002803D0BDE884
:102160001040FEF7BDBB10BD004800400804002031
:10217000FEE770473EB51B4C20680168416802913C
:1021800001684168029101684168029101684168F3
:1021900002916FF04001016013A142F21073D1E986
:1021A0000001CDE90001072269462046FFF7C2FD84
:1021B00021686FF020000860C82308220C492046DF
:1021C000FFF712FD0A480178422905D141784D29CF
:1021D00002D10079E12802D04FF0FF303EBD00204F
:1021E0003EBD0000C8030020424DE1000001700028
:1021F000E00000202DE9F0472E4C2F4D00262078DE
:102200004FF400414FF400594FF4804A28B10027A1
:10221000012814D0022849D139E02846FEF7B2FE41
:1022200048B149462846FEF7ADFE20B15146284642
:10223000FEF7A8FE20BB2078401C207036E08846C0
:102240002846FEF79FFE48B149462846FEF79AFE0B
:1022500020B151462846FEF795FE30BB2078414616
:10226000401C20702846FEF78DFE50B14946284696
:10227000FEF788FE38B151462846FEF783FE20B1AE
:1022800014E0032612E0012610E002260EE02846A4
:10229000FEF778FE50B149462846FEF773FE28B196
:1022A00051462846FEF76EFE00B127703046BDE865
:1022B000F08700002200002000100140F8B504461D
:1022C000002501F021FC802001F0F4FB01F042FC2C
:1022D000204601F0EFFB01F03DFC01F02BFC002457
:1022E0004FF6FF760A2001F01BFE01F00DFC812065
:1022F00001F0E0FB01F02EFC90B9012401F0B6FBE7
:102300008DF8000001F05AFB01F0B0FB8DF80100E0
:1023100001F054FB01F0AAFB8DF8020001F092FBE2
:1023200001F008FC6D1CEDB20A2D02D301F002FC95
:102330000DE0002CD6D002216846FEF7D2FA9DF8B7
:102340000210884203D1BDF8000040BAF8BD304603
:10235000F8BD10B5FE2401F0D7FB802001F0AAFBE8
:1023600001F0F8FB204601F0A5FB01F0F3FBBDE80E
:10237000104001F0DFBB38B50B4600920446002246
:10238000802100F009F8002804D0606D40F02000A2
:102390006065032038BD00002DE9F8431E469146D4
:1023A00088460446089DFEF7FFFD401B351AFEF7E0
:1023B000FBFD074625480068C0F3CB30684338E092
:1023C000701C37D0FEF7F0FDC01BA84203D215B138
:1023D000009860B32CE02068416821F0E001416082
:1023E0006068B0F5827F0BD1A068B0F5004F02D0D5
:1023F000B0F5806F04D12068016821F040010160D0
:10240000A06AB0F5005F09D12068016821F400518D
:1024100001602068016841F400510160012084F8E6
:102420005100002084F850000320BDE8F883002507
:10243000401E00902068816838EA010004D0002125
:102440004945BDD10020F0E70121F9E768000020EF
:102450002DE9F04107461C4615460E462A2000F09D
:1024600067FADFF86080012240214046FEF797FDC1
:10247000380A00F079FA7F1CF8B200F075FA280AE1
:1024800000F072FA6D1CE8B200F06EFA2B2000F03A
:102490004FFA012240214046FEF781FD300A00F04C
:1024A00063FAB61CF0B200F05FFA200A00F05CFAA2
:1024B000A41CE0B200F058FABDE8F0412C2000F076
:1024C00037BA0000000C01402DE9F047DFF86090BA
:1024D000070AC6B24FF40048002241464846FEF7BC
:1024E0005EFD144C00216088401E83B22088401E8F
:1024F00082B20846FFF7ACFF012240210E48FEF7EA
:102500004EFD002507E0384600F02EFA304600F078
:102510002BFA6D1CADB2208861884843A842F2DCDA
:1025200041464846BDE8F0470122FEF738BD0000AD
:102530000008014000000020000C01402DE9F04798
:10254000DFF858A014460D4607464FF400494FEAFD
:102550001328DEB2002249465046FEF720FD2346EE
:102560002A4619463846FFF773FF012240210C48DE
:10257000FEF715FD0024ED1B07E0404600F0F4F9DE
:10258000304600F0F1F9641CA4B2A542F5DA4946E0
:102590005046BDE8F0470122FEF701BD00080140AA
:1025A000000C014070B50122474DD4032146284656
:1025B000FEF7F5FC454E012280213046FEF7EFFC88
:1025C0000120FEF7DDFB002280213046FEF7E7FC0C
:1025D0000120FEF7D5FB012280213046FEF7DFFC0B
:1025E000012221462846FEF7DAFC0120FEF7C8FB4F
:1025F000002221462846FEF7D2FC112000F098F96F
:102600000120FEF7BDFBB12000F092F9012240212C
:102610003046FEF7C4FC052000F0A6F93C2000F08F
:10262000A3F93C2000F0A0F9B22000F081F90122CA
:1026300040213046FEF7B3FC052000F095F93C2020
:1026400000F092F93C2000F08FF9B32000F070F90F
:10265000012240213046FEF7A2FC052000F084F95B
:102660003C2000F081F93C2000F07EF9052000F0CC
:102670007BF93C2000F078F93C2000F075F9B4209B
:1026800000F056F9032000F061F93A2000F050F90B
:10269000052000F05BF9202000F04AF9132000F03B
:1026A00047F9262000F044F9012000F04FF92920D5
:1026B00000F03EF9012221462846FEF770FCBDE8F5
:1026C0007040022000F004B800080140000C0140F6
:1026D00070B5154E04464FF4004500222946304699
:1026E000FEF75DFC362000F023F9A0210F4A802080
:1026F000012C07D0022C09D01080032C518011D05E
:10270000002006E011805080A02002E0118050805F
:10271000602000F01BF929463046BDE870400122D8
:10272000FEF73DBCC020F4E7000801400000002097
:102730002DE9FE4F05460C984FEA132A03F0FF08D7
:102740004FEA1029C6B20C4602EB4200364BA2F10A
:10275000200100EBC20018445F290BD8A0F5C0701F
:10276000016A0091416A0191018DADF8081090F85D
:102770002A0010E0A02A03D3A0F53070016803E01E
:102780002948403050F8601F00914168019101894B
:10279000ADF80810807A8DF80A004FF4004B002243
:1027A00059462248FEF7FBFB04F10B0083B2E81DFB
:1027B00082B221462846FFF74BFE012240211C48E9
:1027C000FEF7EDFB00256F460024785DE040C00772
:1027D00004D0504600F0C8F8404603E0484600F0F8
:1027E000C3F8304600F0C0F8641CA4B2072CECD348
:1027F000484600F0B9F8304600F0B6F86D1CADB2AE
:102800000B2DE1D30024484600F0AEF8304600F02E
:10281000ABF8641CA4B2082CF5D301225946034836
:10282000FEF7BDFBBDE8FE8F4458000800080140DC
:10283000000C01402DE9F843994616460D46044622
:10284000104FDDF8208018E04B4629462046761CC4
:10285000CDF80080FFF76CFF38880838844202DA30
:102860000834E4B209E078884FF000040C3885425F
:1028700002DA0C35EDB200E000253278002AE3D10F
:10288000BDE8F883000000202DE9F0411746069DC1
:1028900098460C460A4606462B463946FFF74EFE3A
:1028A0002B46424639463046FFF748FE2B46424605
:1028B0002146304600F008F82B464246214638466D
:1028C000BDE8F041AFF300802DE9F047DFF858A0F4
:1028D00015460F4604464FF400494FEA1328DEB26E
:1028E000002249465046FEF75AFB22462B463946FF
:1028F0001046FFF7ADFD012240210C48FEF74FFBCB
:102900000024ED1B07E0404600F02EF8304600F0B2
:102910002BF8641CA4B2A542F5DA49465046BDE83E
:10292000F0470122FEF73BBB00080140000C0140CC
:1029300010B50446002240210348FEF730FB204634
:10294000BDE8104000F010B8000C014010B504467E
:10295000012240210348FEF722FB2046BDE810403B
:1029600000F002B8000C014001B501231A46694687
:102970000148FEF7CBFE08BD300300201CB507A1BF
:1029800042F21073D1E90001CDE900010722694646
:102990000448FFF7CFF900201CBD0000424DE400C1
:1029A00000017300C803002000244FF480550E4E30
:1029B000FFF720FC012804D0022805D003280AD103
:1029C00005E0FFF7DBFF06E000F050FB03E02946DF
:1029D0003046FEF7DCFA641CE4B20A2C00D3002473
:1029E000642001F09DFAE3E700080140DFF8B490AD
:1029F000DFF8B4A0DFF8B4B02D4E4FF480754FF679
:102A0000FF7440F2E7384FF47A77012229463046C6
:102A1000FEF7C5FA2748FDF7FDFF002814DB25481F
:102A20000178427804EA01211144A9F80010817864
:102A3000C27804EA01211144AAF800100179407912
:102A400004EA0121084404E0A9F800804046AAF8FD
:102A50000080ABF80000384601F062FA00222946F7
:102A60003046FEF79CFA1448FDF754FF00280FDBB0
:102A70001148124A0178437804EA0121194411806F
:102A800081780F4AC07804EA01210844108005E0EB
:102A90000A49A1F800800A49A1F80080384601F0EF
:102AA0003FFAB2E724000020260000202800002082
:102AB000000801400D0000201A0000202E00002018
:102AC0003000002008B5514F514DDFF84881DFF844
:102AD0004891DFF848A1DFF848B100244FF2BE76F4
:102AE000B7F90000FDF7DCFB2946FDF79BFBFDF77E
:102AF000E0FB02460B464BA14C4800F0CDFA3346B2
:102B00004A4A082168200094FFF794FEB8F90000B3
:102B1000FDF7C6FB2946FDF785FBFDF7CAFB02461C
:102B20000B4643A1414800F0B7FA33463F4A212102
:102B300058200094FFF77EFEB9F800203EA13B48E4
:102B400000F0AAFA33463EA23A2130200094FFF763
:102B500071FE3346354A3A2130200094FFF76AFE71
:102B6000BAF8002039A1314800F096FA334635A270
:102B700053212F200094FFF75DFE33462B4A53214B
:102B80002F200094FFF756FEBBF800202FA1274806
:102B900000F082FA33462BA253217C200094FFF7E9
:102BA00049FE3346214A53217C200094FFF742FE20
:102BB000274826A102881D4800F06EFA334621A25C
:102BC0006C212F200094FFF735FE3346174A6C2105
:102BD0002F200094FFF72EFE1E481CA102881348E8
:102BE00000F05AFA334617A26C2175200094FFF7C3
:102BF00021FE33460D4A6C2175200094FFF71AFE22
:102C00004FF4FA6001F08CF96AE700001E00002022
:102C10000000204120000020240000202600002089
:102C200028000020252E316620430000540000209B
:102C3000252E31662025250025642070706D00004A
:102C400020202020202020200000000025640000FB
:102C50002E00002030000020012001F061F9FBE788
:102C600000F044F8012001F05BF9F9E7034610B5E4
:102C70000020024603E09C5C521C2044D2B28A42EF
:102C8000F9D310BD10B5FEF795F902F057FA0128F7
:102C900003D0BDE8104001F005BF10BD30B58FB0C6
:102CA00028216846FDF7B3FA14210AA8FDF7AFFA08
:102CB00001210804CDE900100024029402250491AA
:102CC000CDE907504FF4E01009906846FEF7FCFA92
:102CD0000F20CDE90A056802CDE90C4002210AA8BF
:102CE0000E94FEF705FA0FB030BD704700252C4654
:102CF00000F07AFE142001F013F9FFF72AFB1420EC
:102D000001F00EF9DFF85480154F4FF47A7900BFC7
:102D1000FDF76AFE4646B04202D00025388006E044
:102D20006D1CEDB20A2D02D30025FFF712FBFDF753
:102D300047FEB04202D00024788006E0641CE4B272
:102D40000A2C02D30024FFF704FB4E46484601F04C
:102D5000E7F8304601F0E4F8DAE7000019FCFFFF7D
:102D60001E00002010B5406A0021C185C184FEF715
:102D700094FD10BD70B5446A2068406994F839101C
:102D8000C0F3C0100025212904D118B1E5842046E4
:102D900000F03FF82068406994F83A10C0F38010C2
:102DA000222904D118B1E585204600F024F8E06B13
:102DB00040F01000E0632046FEF76FFD70BD10B5D7
:102DC0000146406A0968096889060CD40021C1845B
:102DD00001684A6922F080024A610068C16841F0D6
:102DE0004001C16010BDFFF73FF810BD10B5406A4B
:102DF000FFF73BF810BD0168CA6822F49072CA6000
:102E000001684A6922F001024A61202180F83A10E3
:102E100070470168CA6822F0C002CA60202180F8A9
:102E20003910704710B590F83A10222901D00220CD
:102E300010BD82684FF480539A4201D1016921B1DB
:102E4000816A9A421BD04AB10AE00268816A5268DC
:102E5000C2F308020A80816A891C08E0026972B123
:102E60000268526802F07F020A70816A491C81621E
:102E7000C18D491E0904090CC18503D016E0026802
:102E80005268F1E70168CA6822F02002CA6001684E
:102E9000CA6822F48072CA6001684A6922F001029D
:102EA0004A61202180F83A10FEF726FF002010BD6D
:102EB00070B5044600680169E26821F4405111438D
:102EC00001612169A0680843616908432168CA68F3
:102ED00041F20C639A430243CA6020684169A269C7
:102EE00021F44071114341611E492068884202D19A
:102EF000FEF7A4F901E0FEF791F900EBC00101EB48
:102F00000012606864218000B2FBF0F3B3FBF1F3C0
:102F10006FF018067343B2FBF0F5B2FBF0F605EB69
:102F20008305322303EB0515B5FBF1F5B6FBF1F68E
:102F300005F0F00505EB0615B2FBF0F6B2FBF0F07C
:102F4000B0FBF1F06FF01802504306EB800003EB8A
:102F50000010B0FBF1F0216800F00F0028448860F9
:102F600070BD0000003801402DE9F0419846174639
:102F70000E460446069D1DE0681C1BD02DB1FEF7D1
:102F800013F8A0EB0800A84214D92068C16821F406
:102F9000D071C1602068416921F0010141612020A8
:102FA00084F8390084F83A00002084F838000320BF
:102FB000BDE8F0812068006836EA000004D00020F7
:102FC000B842D9D00020F3E70120F9E70148FEF725
:102FD00065BC0000C80300200148FEF75FBC00008C
:102FE00008040020FEE700001FB51B4C20680168A4
:102FF0004168039101684168039101684168039148
:103000000168416803916FF04001016013A242F230
:10301000107307CA8DE80700092269462046FEF7AB
:1030200089FE21686FF0200008604FF49673092232
:103030000D492046FEF7D8FD0B480178422905D1FD
:103040004178782902D18078012803D04FF0FF30F1
:1030500004B010BD0020FBE7080400204278040003
:1030600000000000FF000000CC0000201CB507A1FC
:1030700042F21073D1E90001CDE90001072269464F
:103080000448FEF757FE00201CBD0000424DE4003E
:1030900001017400C80300200FB4084B10B504A947
:1030A00002AA039800F0EEF8044602A9002000F0FE
:1030B00080FC204610BC5DF814FB0000B33900080A
:1030C0000907090E002804DB00F1E02080F8001455
:1030D000704700F00F0000F1E02080F8141D7047E9
:1030E00002E008C8121F08C1002AFAD170477047D1
:1030F000002001E001C1121F002AFBD1704700002F
:103100002DE9FF5F82B00021DDE90430020DDDF81A
:1031100040B0034318D044F61050A2F2FF324243AD
:103120001514119801281FD0A5EB0B00401C5FEA75
:10313000000A4FF000064E4FDFF83891B046504677
:1031400015D5CAF1000413E0119801244AA30128FF
:1031500001D16FEA0B010298119AC0E90031C0E970
:10316000024206B0BDE8F09FCBF10000DFE7044665
:103170000021404A491842EB0450CDE9001012E00A
:10318000E00707D032463B4640464946FDF7C9F9BD
:103190008046894632463B4610461946FDF7C1F93E
:1031A00006460F466410002CEAD1DDE90401DDE992
:1031B0000023BAF1000F06DAFDF7B3F942464B4699
:1031C000FDF7AFF905E0FDF71EFA42464B46FDF765
:1031D0001AFA04460E460022284BFDF79BFA03D844
:1031E0004FF0FF30014607E00022254B20463146D4
:1031F000FDF7F0F8FDF776FA102409E0002C0ADB61
:103200000A220023FDF77EF8039B30321A55641E14
:1032100050EA0102F2D1641C039AC4F11103144470
:10322000119A012A03D0012208430DD10AE0084374
:1032300004D000204FF0110B119072E7A3EB0B05A7
:103240006D1E0DE05B4504DD4FF0000205F1010548
:1032500004E003DA4FF00002A5F10105002AECD0EA
:1032600002981199C0E90231C0E9004579E70000F0
:10327000000014400000F03F300000000000F04368
:103280000000E03F2DE9FF4F95B09B46894606467A
:1032900000250FE2252877D100242746F84A01218E
:1032A000059400E0044316F8013F203B01FA03F0C7
:1032B0001042F7D130782A2811D06FF02F033078E0
:1032C000A0F13002092A16D8059A44F0020402EB54
:1032D000820203EB42021044761C0590EFE759F896
:1032E000042B0592002A03DA504244F4005405905E
:1032F00044F00204761C30782E2816D116F8010FFF
:1033000044F004042A280DD06FF02F023078A0F189
:103310003003092B09D807EB870302EB4303C718D7
:10332000761CF3E759F8047B761C30786C280FD0B4
:1033300006DC4C2817D068280DD06A2814D104E088
:10334000742810D07A280FD10DE044F400140AE05C
:1033500044F4801401E044F440147278824202D1B3
:1033600004F58014761C761C307866280BD013DCAC
:10337000582877D009DC002875D04528F6D0462893
:10338000F4D047281AD19DE118E0632835D064288D
:1033900079D0652812D195E1702873D008DC6728B0
:1033A000F1D069286FD06E280DD06F2806D1B5E016
:1033B00073282CD0752875D0782874D05A46179960
:1033C00090476D1C75E1C4F30250022809D0032810
:1033D0000DD0D9F8001004280DD00D6009F10409B2
:1033E00067E1D9F80010EA17C1E90052F6E7D9F809
:1033F00000100D80F2E70D70F0E719F8041B8DF84E
:10340000001000208DF80100EA46012003E059F881
:1034100004AB4FF0FF3061074FF0000102D40DE024
:1034200008F101018846B9420FDA8045F8DB1AF845
:1034300008100029F4D108E008F101018846814212
:10344000FADB1AF808100029F6D105985B46A0EBC4
:10345000080721463846179A00F094FA284400EBF2
:10346000080507E04DE029E10DE01AF8010B5A4686
:1034700017999047B8F10108F7D25B4621463846C4
:10348000179A13E142E00A220092C4F302524FF06D
:10349000000A022A08D059F804CB032A4FEAEC713B
:1034A0000AD00DE029E02AE009F1070121F0070226
:1034B000F2E802C1914609E00FFA8CFC4FEAEC7188
:1034C000042A03D14FFA8CFC4FEAEC71002907DA89
:1034D0000A460021DCF1000C61EB02012D2202E022
:1034E000220504D52B228DF80420012203E0E207F7
:1034F00001D02022F7E7904659E00A2102E010228D
:103500000DE010214FF0000A00910BE010224FF067
:10351000000A44F004040827009203E008224FF058
:10352000000A0092C4F30252022A05D059F804CBD3
:103530000021032A08D009E009F1070121F0070260
:10354000F2E802C1914605E01FFA8CFC042A01D181
:103550000CF0FF0C4FF00008220728D5702806D089
:10356000009B83F0100353EA0A0305D00EE04022CB
:103570008DF80420012208E05CEA010206D0302226
:103580008DF804208DF8050002229046009B83F000
:10359000080353EA0A030AD15CEA010201D1620777
:1035A00005D530228DF804204FF001087F1E5828E1
:1035B00004D034A003900EA802900DE036A0F9E7E5
:1035C00053466046009AFCF79DFE84460398825C51
:1035D0000298401E029002705CEA0100F0D102984D
:1035E00006A9081A00F1200A600702D524F48034E5
:1035F00000E00127574502DDA7EB0A0000E00020AC
:1036000000EB0A01009005984144401A0590E00340
:1036100006D45B462146179A059800F0B3F9054495
:10362000002706E001A85A46C05D179990476D1C17
:103630007F1C4745F6DBE0030CD55B462146179A15
:10364000059800F09FF9054404E030205A46179988
:1036500090476D1C0099481E00900029F5DC08E099
:10366000029802995A460078491C0291179990478E
:103670006D1CBAF10001AAF1010AF1DC65E100005C
:103680000928010030313233343536373839616238
:1036900063646566000000003031323334353637FC
:1036A00038394142434445460000000000F058F9D3
:1036B0000544761C307800287FF4ECAD19B028461C
:1036C000BDE8F08F620700D4062709F1070222F057
:1036D000070CFCE80223E14603F000485FEA080C0F
:1036E00002D00FF2702C0DE05FEA045C02D50FF2FD
:1036F000682C07E05FEAC47C02D00FF2602C01E086
:10370000AFF2700C4FF0FF3823F00043CDF850C0FB
:1037100065280CD006DC452809D046281DD047284E
:103720003DD13DE0662818D067287ED138E00021E1
:10373000112F01DB112000E0781CCDE9000106A962
:103740000EA8FFF7DDFCDDE90F010E9A03910021C1
:10375000009207F1010A04914DE04FF000400097FC
:10376000CDE9011006A90EA8FFF7CAFCDDE90F029A
:1037700003920E9B11990022DDF80CA00093049295
:1037800011B9791C00EB010AB7EB0A0004D4C0F1AF
:10379000FF3007F1010A0490AAEB0700019044E012
:1037A000012F00DA01270021112F01DD112000E097
:1037B0003846CDE9000106A90EA8FFF7A1FCDDE916
:1037C0000F010E9A0391002104910092BA4621073D
:1037D0000CD40399514500DA8A46BAF1010F05DD90
:1037E000009AAAF10101515C302908D0B84202DAEE
:1037F00010F1040F06DA0121CDE9011015E0AAF15C
:103800000101E9E7002805DC049901440491AAEBD1
:10381000000102E0411C514500DD8A460499401A2E
:10382000401C01904FF000400290200704D4019802
:10383000504501DBCDF8048000208DF84F00029840
:103840000DF14F07B0F1004F25D02B200E900298BC
:103850004FF0020800280CDA404202902D200E9012
:1038600007E00A210298FCF737FD3031029007F893
:10387000011DB8F10001A8F10108F2DC029800284E
:10388000EFD1791E0E980870307800F0200040F0DB
:10389000450007F8020D12A8C01B00F10708149894
:1038A000007800B1012000EB0A01019801EBE07102
:1038B00005984144401A401E0590E00306D45B463B
:1038C0002146179A059800F05DF805441498007891
:1038D00018B15A46179990476D1CE00324D55B46F2
:1038E0002146179A059800F04DF805441CE004980D
:1038F000002807DBDDE90301884203DD0098405C16
:10390000179901E0179930205A469047049805F11D
:103910000105401C04900198401E019004D12E2006
:103920005A46179990476D1CBAF10001AAF1010A95
:10393000DDDC05E017F8010B5A46179990476D1C1E
:10394000B8F10001A8F10108F4DC5B462146179AA2
:103950000598ABE62D0000002B00000020000000C1
:103960002DE9F041044600251E461746880404D47C
:1039700005E039462020B0476D1C641EF9D5284665
:10398000BDE8F0812DE9F041044600251E46904631
:10399000C80301D5302700E02027880404D505E0BE
:1039A00041463846B0476D1C641EF9D52846BDE82F
:1039B000F0810A68531C0B60107070472DE9F041CC
:1039C000084D4FF400742C6000F036F82F1F66107D
:1039D0003E6000F031F82E6000F02EF83C60BDE84B
:1039E000F0810000140C0140114800B5816985B0D8
:1039F00041F004018161816901F004010491816950
:103A000041F0040181618069694600F0040004907E
:103A10004FF440700090112001900020029003208C
:103A200003900448FDF7BEF900F084F805B000BD2E
:103A300000100240000C01400020401CC0B20A28C7
:103A4000FBD3704770B5084C4FF400702060FFF74F
:103A5000F3FFA5152560FFF7EFFF201D0560BDE80A
:103A60007040FFF7E9BF0000100C01402DE9F0475E
:103A70000F4F0024DFF838802546A8F10808BE154E
:103A800007F104096006040E3E60FFF7D5FFD8F881
:103A90000000800501D5641CE4B2C9F80060FFF79E
:103AA000CBFF6D1CEDB2082DECD32046BDE8F087AE
:103AB000100C01402DE9F047DFF84890054600243E
:103AC0004FF480774FF40078A9F1040628064046A9
:103AD00001D5306001E0C9F80000FFF7ADFF3760A5
:103AE000FFF7AAFFC9F80070072C01D1C6F80080C3
:103AF0006806050EFFF7A0FF641CE4B2082CE5D3AE
:103B0000BDE8F087140C014070B509484FF400750A
:103B1000056084150460FFF78FFF054E361D356084
:103B2000FFF78AFF3460BDE87040FFF785BF0000F3
:103B3000100C014070B506484FF400740460044D49
:103B400080152D1F2860FFF777FF2C6070BD0000E7
:103B5000140C014070B50C4C4FF400702060FFF75E
:103B60006BFFA5152560FFF767FF07480838006859
:103B7000800501D5012400E000240348001D0560F4
:103B8000FFF75AFF204670BD100C0140EFF305808F
:103B9000002800D00120704708B5FDF713FAFFF7A1
:103BA0007DF8FEF7FDF9FEF781F9FEF78DFAFEF7D5
:103BB000A7FAFEF7C1FAFEF763FAB34C0025258099
:103BC0006580A580E58025816581A581FEF7EAFCF9
:103BD0000020FEF779FC4FF4784600217F239F22D6
:103BE00008460096FEF750FE01217E239E220846DD
:103BF0000096FEF749FE33461A229E210120FEF769
:103C00009DFC334633229E210120FEF797FC33466C
:103C10004C229E210120FEF791FC334665229E2115
:103C20000120FEF78BFC33467E224C214F20FEF70D
:103C30004BFE334695A2082105200095FEF7FAFDBC
:103C4000334696A2212105200095FEF7F3FD334669
:103C500095A23A2105200095FEF7ECFD334694A28B
:103C6000532105200095FEF7E5FD334692A253212E
:103C700052200095FEF7DEFD334691A26C2105200F
:103C80000095FEF7D7FD33468FA26C215220009598
:103C9000FEF7D0FD8E4E012211033046FDF77FF96D
:103CA00041F28830FDF76CF8FEF7F0F8FEF7DFF828
:103CB0004FF4FA70FDF764F8FEF716F900F037F9E3
:103CC0004FF6FF7942F20F7AB3464FF47A78012229
:103CD000160231465F465846FDF761F97D48FCF70C
:103CE00099FE002812DB7B480278437809EA022219
:103CF0001A4422808278C37809EA02221A44628038
:103D00000279407909EA0221084404E0A4F800A0FD
:103D10005046A4F802A0A080002231463846FDF7A4
:103D20003EF96D48FCF7F6FD00280CDB6A490A787D
:103D30004B7809EA02221A4462818A78C97809EA32
:103D40000220084402E05046A4F80AA0A0814046A0
:103D5000FDF716F8002231463846FDF720F95F4896
:103D6000B0F90000FCF79CFA5D4E3146FCF75AFAB8
:103D7000FCF79FFA02460B465AA15C48FFF78CF904
:103D80004FF2BE773B46594A082168200095FEF75E
:103D900051FD5748B0F90000FCF782FA3146FCF7B4
:103DA00041FAFCF786FA02460B4652A14F48FFF74C
:103DB00073F93B464D4A212158200095FEF73AFD04
:103DC00022884EA14948FFF767F93B464DA23A21A8
:103DD00030200095FEF72EFD3B46444A3A21302024
:103DE0000095FEF727FD628849A14048FFF754F986
:103DF0003B4645A253212F200095FEF71BFD3B4675
:103E00003A4A53212F200095FEF714FDA28840A1C5
:103E10003648FFF741F93B463BA253217C200095F1
:103E2000FEF708FD3B46314A53217C200095FEF702
:103E300001FD628936A12D48FFF72EF93B4632A2DB
:103E40006C212F200095FEF7F5FC3B46274A6C219C
:103E50002F200095FEF7EEFCA2892DA12348FFF745
:103E60001BF93B4628A26C2175200095FEF7E2FC69
:103E70003B461E4A6C2175200095FEF7DBFC404650
:103E8000FCF77EFF23E700002400002054656D70DE
:103E9000657261747572653A0000000048756D695D
:103EA000646974793A00000065434F323A000000BB
:103EB00054564F433A0000004348324F3A00000046
:103EC000504D322E353A0000504D31303A0000004E
:103ED000000801400D0000201A0000201E000020F4
:103EE00000002041252E31662043000054000020B0
:103EF00020000020252E3166202525002564207015
:103F0000706D0000202020202020202000000000D4
:103F10002564000001460020842900D0C81C704799
:103F200010B500B9012000F05DFC002010BD10B5F7
:103F300000F0F8FC002010BD38B543684BB10129F2
:103F400009D10320002200901146012000F0E4FD79
:103F500038BD012901D0002038BD032200210120F5
:103F600000F0B6FD040004D000231A46194600F004
:103F70004BFE204638BD000038B5002405460094AD
:103F8000FFF704FE90B16946284600F0EDFE0128D7
:103F900001D0FF2038BD009888B10A494FF0805009
:103FA0000860BFF34F8FBFF36F8F08E000231A46FE
:103FB0001946284600F028FE012800D0FF2420469C
:103FC00038BD000004ED00E038B505004FF00000FA
:103FD00000900FD00024481C0ED001B10C46FFF712
:103FE000D5FDB8B16A460021284600F00BFF012834
:103FF00016D104E0802038BD4FF0FF34EFE7009881
:1040000080B109494FF080500860BFF34F8FBFF374
:104010006F8F07E02146284600F042FF012801D0BB
:10402000FF2038BD002038BD04ED00E07FB50D460F
:1040300004464169B0F9080081B1A16971B1FFF787
:1040400069FFD4E905128DE80700D4E900102B467A
:10405000226901F048F8039004B070BDFFF75AFFE1
:1040600003A9CDE90001208A2B4682B2D4E90010D1
:1040700001F00CF8012801D00020EDE70398EBE7F0
:104080002DE9F041184C0F46054666692068001D71
:1040900000F0BAFA38B9206890F82C100120884056
:1040A000A1698143A161681C07D137B12168BDE8CE
:1040B000F0410E48091D00F0EBBA20683544B542C6
:1040C0004560216805D2A068BDE8F041091D00F0F7
:1040D000C7BA6068091D00F0C3FA206B854200D2A0
:1040E0002563BDE8F08100006C000020AC050020D5
:1040F0002DE9F041054600F0D7FA2E4C2069401C0E
:10410000206120682C4F10B1E06940B32DE025609C
:104110002069012829D1002606EB860007EB8000E4
:1041200000F090FA761C072EF6D323488C3000F06E
:1041300089FA2148A03000F085FA1F48B43000F019
:1041400081FA1D48C83000F07DFA1B48DC3000F0D1
:1041500079FA19488C3060601430A06005E020685E
:10416000E96AC06A884200D82560E06A401CE062C3
:10417000E96A0120A26988401043A06101EB810037
:1041800007EB8000291D00F083FA00F0ADFAE0692A
:1041900000280CD02068E96AC06A884207D2074923
:1041A0004FF080500860BFF34F8FBFF36F8FBDE8B3
:1041B000F08100006C000020D004002004ED00E03D
:1041C00030B4026C0B46002A0BD0C1681144C160A8
:1041D0004468A14201D30168C16030BC1846FBF7B6
:1041E000FDBF30BC70472DE9F041856B1746044692
:1041F0000026026C82B1C7B1E068FBF7EFFFE1680F
:10420000206C091AE1602268914202D26168081AA2
:10421000E060022F16D017E02068A8B9606800F0AF
:10422000FFFF0646002060600EE0A068FBF7D6FFA7
:10423000216CA0680844A0606168884204D32068AB
:10424000A06001E005B16D1E6D1CA5633046BDE8A0
:10425000F08110B5044690F8510058B101280CD0F7
:1042600002280FD0502080F31188BFF34F8FBFF387
:104270006F8FFEE7206B00F04BFA2046BDE8104040
:1042800000F046BA10BD000010484FF440614207EC
:1042900006D0C01D0D4920F00700411AC1F540614C
:1042A0000B4A00230144C2E900030839103A21F007
:1042B000070111604B600B600B1AC0E9001393609B
:1042C0004FF000405360D06070470000C0050020F0
:1042D000B8000020144E154CA6F1C8074FF08058C6
:1042E000DFF84C9012E000BF00F0DEF9F068C5681E
:1042F000281D00F089F92069401E2061E068401EF9
:10430000E06000F0F1F92846FFF7A3FFE06800281D
:10431000EAD138680128F9D9C9F80080BFF34F8F76
:10432000BFF36F8FF2E70000980500206C000020BB
:1043300004ED00E00346009829B10260C0E90F31A6
:10434000012100F01DBC0060F8E72DE9F0479A4616
:10435000DDE9098481466FF00303206B03EB8202E1
:104360001044089D20F00706700707D0502080F306
:104370001188BFF34F8FBFF36F8FFEE723180A5CDE
:1043800083F834200A5C12B1401C1028F6D30027B1
:1043900084F84370072D00D30625E562C4E9115760
:1043A000201D00F05AF904F1180000F056F92461BC
:1043B000C5F107006462A061E76484F8507052465A
:1043C0004946304600F00EF92060B8F1000F01D0E8
:1043D000C8F80040BDE8F08730B5114900E011464B
:1043E0000A688242FBD34B685C18844203D1406860
:1043F00018444860084643681C18944209D1084C88
:10440000103C2468A24209D052681A4442600A68EB
:1044100012680260814200D0086030BD0460F9E794
:10442000B800002010B5044600F03EF9A06B28B19A
:104430005FF0000400F058F9204610BD0124F9E7B0
:1044400006484168096829B14168C968C96849686E
:10445000016370474FF0FF31FAE700006C00002065
:1044600008484068401C4FF0500080F3118804D089
:10447000BFF34F8FBFF36F8FFEE7BFF34F8FBFF3D5
:104480006F8FFEE7C00000202DE9F041044600F0E8
:104490000BF994F9455004F1240609E0606A48B12B
:1044A000304600F053FF08B100F0CAF96D1E6DB23E
:1044B000002DF3DC4FF0FF3684F8456000F014F96E
:1044C00000F0F2F894F9445004F1100709E0206973
:1044D00048B1384600F03AFF08B100F0B1F96D1E5E
:1044E0006DB2002DF3DC84F84460BDE8F04100F0CB
:1044F000FBB800002DE9F0410546002700F048FA1E
:10450000314E306808B9FFF7BFFEF06805424BD165
:10451000C5B3083568070ED005F00700C0F10800E4
:104520000544680707D0502080F31188BFF34F8FF0
:10453000BFF36F8FFEE72DB37068854234D82248F1
:10454000103001460C6801E020460C466168A94223
:1045500002D221680029F7D131688C4224D0076843
:104560002168016060680837411B10290FD9601964
:10457000420708D0502080F31188BFF34F8FBFF35C
:104580006F8FFEE710E041606560FFF725FF61680F
:104590007068401A7060B268904200D2B060F068F3
:1045A00001430020C4E9000100F00AFF780707D0AA
:1045B000502080F31188BFF34F8FBFF36F8FFEE75A
:1045C0003846BDE8F0810000A800002004490868D2
:1045D00018B10868826C521C826408687047000039
:1045E0006C00002010B5031F4FF080741C601B1F6F
:1045F00021F001011960191F024B0B60143940387A
:104600000A6010BD61440008D0E9013201699A6076
:10461000D0E901235A604A68824201D182684A6027
:10462000002202610868401E0860086870470000A8
:10463000034B036003F15400086040201060704792
:10464000DC01002000F108014FF0FF32C0E9011247
:10465000C160016100210160704700210161704764
:1046600030B50B685A1C02D000F1080202E0026962
:1046700004E02246546825689D42FAD953684B608D
:1046800099608A60516008610168491C016030BD11
:1046900042684A6093688B609368596091600861D2
:1046A0000168491C01607047502080F31188BFF3F6
:1046B0004F8FBFF36F8F0A494868401C486001283C
:1046C0000CD10848006810F0FF0F07D0502080F38D
:1046D0001188BFF34F8FBFF36F8FFEE77047000065
:1046E000C000002004ED00E00849486828B1401EE1
:1046F000486001D180F311887047502080F3118801
:10470000BFF34F8FBFF36F8FFEE70000C0000020A4
:1047100070B5002827D0144DA0F108046168E8683E
:10472000014207D1502080F31188BFF34F8FBFF3B0
:104730006F8FFEE722683AB1502080F31188BFF3F3
:104740004F8FBFF36F8FFEE78143616000F020F968
:1047500060686968084468602046FFF73DFEBDE870
:10476000704000F02DBE70BDA80000204FF0E0208A
:1047700000210161816105494FF47A720968B1FB3A
:10478000F2F1491E41610721016170476800002074
:1047900010B5FBF7FDFC114910280ED300F1E02005
:1047A00090F8F0030A78904207D2502080F31188E5
:1047B000BFF34F8FBFF36F8FFEE70948006889682A
:1047C00000F4E060884207D9502080F31188BFF3DD
:1047D0004F8FBFF36F8FFEE710BD0000C0000020B9
:1047E0000CED00E010B5020014D00F48806B38B11A
:1047F000502080F31188BFF34F8FBFF36F8FFEE718
:1048000000F0C6F800211046FFF73AFC00F0D8FD92
:10481000002807D105494FF080500860BFF34F8F43
:10482000BFF36F8F10BD00006C00002004ED00E0AE
:1048300002498A6A02604969416070476C00002041
:1048400001490120486270476C00002010B50C46F9
:1048500050B1094909681831FFF702FF2046BDE849
:1048600010400121FFF70CBC502080F31188BFF3EA
:104870004F8FBFF36F8FFEE76C00002070B5040010
:104880004BD0A26CA2B1606C884200D30146E06AB2
:10489000884242D0012A40D1204D2A6894420FD14B
:1048A000502080F31188BFF34F8FBFF36F8FFEE767
:1048B000502080F31188BFF34F8FBFF36F8FFEE757
:1048C000E162A269002A02DBC1F10701A161144E75
:1048D00000EB8000616906EB800081421DD1201D44
:1048E000FFF792FE012150B9E06A00EB800256F812
:1048F000222022B9AA6901FA00F08243AA61E06A83
:10490000AA6981401143A96100EB800006EB800099
:10491000211DBDE87040FFF7BBBE70BD6C000020DC
:10492000D004002010B586B00024039405AA04A981
:1049300003A80494FFF77CFEDDE903010094CDE9B0
:10494000011000230EA11048059A00F0CCFB0F497E
:104950000028486311D0502080F31188BFF34F8F97
:10496000BFF36F8F4FF0FF3008630120C8614C61C7
:1049700006B0BDE8104000F041B806B010BD000020
:1049800049444C4500000000D54200086C0000205E
:104990000248816B491C8163704700006C00002055
:1049A0001448816B11B101214162704700214162BD
:1049B0008169B1FA81F1C1F11F0101EB81020E4958
:1049C00051F822306BB101EB820101F108034A6812
:1049D00052684A609A4201D152684A60D1680160C7
:1049E0007047502080F31188BFF34F8FBFF36F8F54
:1049F000FEE700006C000020D00400201CB5264912
:104A000008780190FF20087008788DF800009DF864
:104A100000009DF8002000F0F000904207D05020E8
:104A200080F31188BFF34F8FBFF36F8FFEE79DF8C0
:104A300000001A4B00F0500018700720986005E045
:104A40009DF8002052008DF80020401E9DF80020A7
:104A50001206F5D49860032807D0502080F31188FF
:104A6000BFF34F8FBFF36F8FFEE74FF44070986036
:104A7000019808700A48016841F4700101600168FA
:104A800041F070410160FFF771FE00205860FBF7B4
:104A900049FB00201CBD000000E400E0C000002035
:104AA00020ED00E010B5502080F31188BFF34F8F48
:104AB000BFF36F8F00F050FB18B104494FF08050E6
:104AC0000860002080F3118810BD000004ED00E0B4
:104AD000F8B517460E46050014D0DEB105FB06F00A
:104AE0004830FFF707FD04000AD0002084F8460094
:104AF00004F148023B46314628460094FFF71AFC71
:104B00002046F8BD502080F31188BFF34F8FBFF3CC
:104B10006F8FFEE70020E3E738B5049D18B153B16D
:104B2000CAB181B120E0502080F31188BFF34F8FCC
:104B3000BFF36F8FFEE7502080F31188BFF34F8FD4
:104B4000BFF36F8FFEE7502080F31188BFF34F8FC4
:104B5000BFF36F8FFEE739B1502080F31188BFF3A8
:104B60004F8FBFF36F8FFEE748241C46012384F864
:104B700046302B460094FFF7DDFB204638BD000091
:104B800070B50D46040025D0FFF78EFDD4E90F2047
:104B9000216802FB001161600021A1632168A1600E
:104BA0000A46D4E90F01401E00FB0121E1602146C5
:104BB0004FF0FF3001F8440F487004F110008DB140
:104BC000FFF740FD04F12400FFF73CFDFFF78CFDEB
:104BD000012070BD502080F31188BFF34F8FBFF3C9
:104BE0006F8FFEE721690029F0D000F0AFFB0028AD
:104BF000ECD004494FF080500860BFF34F8FBFF3F3
:104C00006F8FE3E704ED00E02DE9FF4782B01D461A
:104C10008A464FF00008040003D0BAF1000F08D014
:104C200011E0502080F31188BFF34F8FBFF36F8FD7
:104C3000FEE7206C38B1502080F31188BFF34F8F0E
:104C4000BFF36F8FFEE7022D0AD1E06B012807D07A
:104C5000502080F31188BFF34F8FBFF36F8FFEE7B3
:104C600000F06CFA3F4F4FF000094FF0805648B902
:104C7000049838B1502080F31188BFF34F8FBFF3F1
:104C80006F8FFEE7FFF710FDA06BE16B884207D343
:104C9000022D05D00498D0B1B8F1000F1AD01EE053
:104CA0002A4651462046FFF79EFA616A19B104F17F
:104CB000240000F04BFB20B13E60BFF34F8FBFF3E9
:104CC0006F8FFFF711FD012006B0BDE8F087FFF7F9
:104CD0000BFD22E06846FFF7ABFD4FF00108FFF740
:104CE00003FDFFF755FEFFF7DFFC94F94400401C7D
:104CF00001D184F8449094F94500401C01D184F816
:104D00004590FFF7F1FC04A9684600F085F930B141
:104D10002046FFF7B9FB00F053FB0020D4E7FFF774
:104D2000C3FCA06BE16B884213D1FFF7DDFC04F1FB
:104D300010000499FFF78AFD2046FFF7A5FB00F05D
:104D40003FFB00289ED13E60BFF34F8FBFF36F8FB4
:104D500098E7FFF7C9FC2046FFF796FB00F030FB11
:104D600090E7000004ED00E070B50E46040009D0A5
:104D7000206C78B1502080F31188BFF34F8FBFF3C0
:104D80006F8FFEE7502080F31188BFF34F8FBFF382
:104D90006F8FFEE7206848B9606838B1502080F313
:104DA0001188BFF34F8FBFF36F8FFEE7FFF7F0FC63
:104DB0005020EFF3118580F31188BFF34F8FBFF3BD
:104DC0006F8FA16BE06B884218D994F94500491C9C
:104DD000A163411C04D0401C84F8450001200EE072
:104DE000606A0028FAD004F1240000F0AFFA00282D
:104DF000F4D0002EF2D001203060EFE7002085F3E0
:104E0000118870BD2DE9F04790468946040003D013
:104E1000B9F1000F08D011E0502080F31188BFF3E2
:104E20004F8FBFF36F8FFEE7206C38B1502080F3B7
:104E30001188BFF34F8FBFF36F8FFEE7FFF7A8FC1A
:104E40005020EFF3118680F31188BFF34F8FBFF32B
:104E50006F8FA76BF7B194F9445049462046FFF78E
:104E6000AFF97F1EA763681C04D06D1C84F8445002
:104E7000012010E020690028FAD004F1100000F0B1
:104E800065FA0028F4D0B8F1000FF1D00121C8F87C
:104E90000010EDE7002086F31188BDE8F0870000E0
:104EA0002DE9F343002683B00400354609D0206C79
:104EB00078B1502080F31188BFF34F8FBFF36F8F0D
:104EC000FEE7502080F31188BFF34F8FBFF36F8F41
:104ED000FEE700F033F9DFF83C814FF000094FF0B6
:104EE000805748B9049838B1502080F31188BFF337
:104EF0004F8FBFF36F8FFEE7FFF7D6FBA06BC8B1F4
:104F0000401EA063206810B9FFF760FB6060206955
:104F100050B104F1100000F019FA28B1C8F800707F
:104F2000BFF34F8FBFF36F8FFFF7DEFB012005B09C
:104F3000BDE8F083049808B166B10FE03DB15020A0
:104F400080F31188BFF34F8FBFF36F8FFEE7FFF73A
:104F5000CBFB5DE06846FFF76BFC0126FFF7C4FB67
:104F6000FFF716FDFFF7A0FB94F94400401C01D1A8
:104F700084F8449094F94500401C01D184F8459090
:104F8000FFF7B2FB04A9684600F046F80028204667
:104F900012D0FFF779FA00F013FA2046FFF742FA31
:104FA0000028A9D09DB3FFF77FFB606A50B3206B48
:104FB0000068C0F1070126E0FFF734FAE0B120688D
:104FC00038B9FFF771FB606800F076F90546FFF726
:104FD0008BFB04F124000499FFF738FC2046FFF70F
:104FE00053FA00F0EDF9002886D1C8F80070BFF33D
:104FF0004F8FBFF36F8F7FE72046FFF745FA00F032
:10500000DFF979E700216068FFF738FC9FE7FFE7E9
:1050100000208CE704ED00E02DE9F0410C4605008E
:1050200011D0C4B1FFF740FB174B5A696E68206876
:10503000911B471C17D02F689B6A9F4219D096423C
:1050400017D8012410E0502080F31188BFF34F8F50
:10505000BFF36F8FFEE7502080F31188BFF34F8FAF
:10506000BFF36F8FFEE70024FFF73EFB2046BDE84D
:10507000F081884205D9401A20602846FFF7D8FB06
:10508000F1E700202060DCE76C0000202DE9FF5FE5
:105090008346DDE90E87994616468A469000FFF75B
:1050A00029FA05001CD05420FFF724FA040014D07C
:1050B0000020256384F85100CDE90240CDE9008746
:1050C0004B46324651465846FFF73FF92046FFF718
:1050D0000FF8012004B0BDE8F09F2846FFF718FB49
:1050E0004FF0FF30F6E7F0B585B0DDE90B640A9DBF
:1050F000A6B1DCB1542700972663022684F85160DC
:10510000002604AFCDE90246CDE90057FFF71DF9AF
:105110002046FEF7EDFF049805B0F0BD502080F367
:105120001188BFF34F8FBFF36F8FFEE7502080F3DE
:105130001188BFF34F8FBFF36F8FFEE70548C1693A
:1051400019B1806B18B10020704701207047022010
:10515000704700006C0000202DE9F0412E4C002724
:10516000A06B40B1206A401C2062606A00B1012738
:105170003846BDE8F0816669761C666113D16068C7
:10518000006838B1502080F31188BFF34F8FBFF310
:105190006F8FFEE76068A1686160A060A06A401C34
:1051A000A062FFF74DF9206BDFF87080864209D3CB
:1051B0006068006880B16068C068C56868688642D9
:1051C0000DD220632068C06A00EB800158F82100EE
:1051D0000128CAD90127C8E74FF0FF30F1E7281DA1
:1051E000FFF712FAA86A18B105F11800FFF70CFAD8
:1051F000E86A0121A26981401143A16100EB8001AD
:1052000008EB8100291DFFF743FAE86A2168C96AA3
:105210008842CDD30127CBE76C000020D0040020CA
:1052200070B504004FF0000140D0214D2868844241
:1052300007D0502080F31188BFF34F8FBFF36F8FDB
:10524000FEE7A06C38B1401EA064636CE26A9A422B
:105250002CD040B12AE0502080F31188BFF34F8F4B
:10526000BFF36F8FFEE7201DFFF7CEF9114A012132
:1052700050B9E06A00EB800352F8233023B9AB69E0
:1052800001FA00F08343AB61606CE062C0F107009B
:10529000A061E06AAB6981401943A96100EB80001D
:1052A00002EB8000211DFFF7F3F90121084670BDD4
:1052B0006C000020D004002070B504004FF0000006
:1052C00038D0204DE16A2A68D26A914233D2A0696F
:1052D000002804DB2868C06AC0F10700A0611A4EEC
:1052E00001EB8101606906EB810188421ED1201D1E
:1052F000FFF78AF9012150B9E06A00EB800256F805
:10530000222022B9AA6901FA00F08243AA61286822
:10531000C06AE062AA6981401143A96100EB800084
:1053200006EB8000211DFFF7B3F902E02868C06A90
:10533000E062012070BD616C2A68D26A9142F8D3A4
:1053400070BD00006C000020D00400202DE9F04169
:10535000C068C468ACB104F118000746FFF754F9FF
:10536000154DA86B0126A0B139461448FFF790F9F6
:10537000E06A2968C96A88421CD901206E62BDE8CA
:10538000F081502080F31188BFF34F8FBFF36F8FF0
:10539000FEE7201DFFF738F9E16AAA6906FA01F075
:1053A0001043A86101EB81000449B43901EB80008E
:1053B000211DDBE70020E2E76C00002084050020CF
:1053C0002DE9F0472C4D00242746A86B38B1FFF794
:1053D0006BF9A86B401EA863A86B40B146E0502053
:1053E00080F31188BFF34F8FBFF36F8FFEE72969FA
:1053F000224E0120D1B3A6F1B40980463068E8B14D
:10540000F068C46804F11800FFF7FEF8201DFFF7EC
:10541000FBF8E06AAA6908FA00F11143A96100EB00
:10542000800109EB8100211DFFF732F9E06A29684C
:10543000C96A8842E2D3C5F82480DFE70CB1FEF7E1
:10544000FFFF2C6A44B14646FFF786FE00B16E624C
:10545000641EF9D100202862686A38B10849012722
:1054600038070860BFF34F8FBFF36F8FFFF73CF92A
:105470003846BDE8F08700006C000020840500205D
:1054800004ED00E0000000000000005F00000007E5
:10549000000700147F147F14242A7F2A1223130884
:1054A000646236495522500005030000001C224169
:1054B000000041221C00082A1C2A0808083E08088F
:1054C0000050300000080808080800606000002054
:1054D000100804023E5149453E00427F40004261AF
:1054E0005149462141454B311814127F102745453B
:1054F00045393C4A49493001710905033649494952
:1055000036064949291E003636000000563600008E
:105510000008142241141414141441221408000227
:1055200001510906324979413E7E1111117E7F49B0
:105530004949363E414141227F4141221C7F494930
:1055400049417F090901013E414151327F08080864
:105550007F00417F41002040413F017F08142241EC
:105560007F404040407F0204027F7F0408107F3E5E
:105570004141413E7F090909063E4151215E7F09B3
:10558000192946464949493101017F01013F4040FF
:10559000403F1F2040201F7F2018207F63140814E5
:1055A000630304780403615149454300007F41418E
:1055B000020408102041417F00000402010204405F
:1055C00040404040000102040020545454787F4879
:1055D0004444383844444420384444487F38545480
:1055E0005418087E090102081454543C7F0804042E
:1055F0007800447D40002040443D00007F10284456
:1056000000417F40007C041804787C08040478384A
:10561000444444387C14141408081414187C7C087E
:105620000404084854545420043F4440203C404063
:10563000207C1C2040201C3C4030403C442810284A
:10564000440C5050503C4464544C440008364100D3
:1056500000007F000000413608000804081008FF21
:10566000FFFFFFFF0000000000234439040324492A
:1056700032090420413F01005D2222225D7E0202A8
:1056800002010000770000004A5529007C5554456E
:10569000003E7F63773E3E494941220814000814CA
:1056A000080808081800000000003E5F4B553E0047
:1056B000457C450000040A040044445F4444004122
:1056C0007F410000447D40007C040402007C1010F7
:1056D0003C40060F7F017F000008000038555455FC
:1056E000187C10207C0C38545444281408001408EA
:1056F00020403D0000664949493308545454200075
:10570000457C41007C1211127C7F494949317F4917
:105710004949367F01010101603F213F607F4949CE
:10572000494177087F087722414949367F100804AC
:105730007F7E1009047E7F08142241403E01017FD4
:105740007F020C027F7F0808087F3E4141413E7F77
:105750000101017F7F090909063E41414122010102
:105760007F0101074848483F0E117F110E6314085E
:1057700014633F20203F60070808087F7F407E4079
:105780007F3F203F207F017F4848307F4830007FA7
:10579000007F484830224149493E7F083E413E460D
:1057A0002919097F20545454783C4A4A4A317C5480
:1057B0005428007C04040C00603C243C60385454A1
:1057C00054186C107C106C00445454287C20100831
:1057D0007C7C2112097C7C10284400403804047C25
:1057E0007C0810087C7C1010107C38444444387CC1
:1057F0000404047C7C141414083844444400040455
:105800007C04040C5050503C08147C1408442810AC
:1058100028443C20203C600C1010107C7C407C40D4
:105820007C3C203C207C047C5050207C5020007C20
:10583000007C50502028445454387C103844384858
:105840005434147C00000000000000000000000838
:1058500008080808080808000808121212000000CA
:1058600000000000004848247F2424127F12090908
:10587000083E4909093E4848493E08472527101077
:1058800008080472527106090909262225291129DE
:105890004608080800000000000000000804040298
:1058A0000202020204040804080810101010100874
:1058B000080400082A1C2A0800000000000000005C
:1058C00008083E080800000000000000000000007A
:1058D000080C0400000000003E0000000000000072
:1058E000000000000000001818101010080808043C
:1058F000040402021C2251514949494545221C0811
:105900000C0A080808080808083E1E2140404020EC
:10591000100804027F1F204040201E204040201F0E
:1059200030282422217F20202020207F0101011FF8
:1059300020404040201F380402011D2341414122E4
:105940001C7F402020101008080404021C22414142
:10595000221C224141221C1C22414141625C402008
:10596000100E00000C0C0000000C0C000000000CDD
:105970000C0000000C0C08040040300C0201020C6A
:10598000304000000000007F00007F0000000001A8
:105990000618204020180601003E4140403008080B
:1059A000080008081C2241495555553901023C0898
:1059B0001414222241417F4141411F2121211F21F5
:1059C000414141211F3C4201010101010101423CD1
:1059D0001F2242424242424242221F7F0101011FD6
:1059E00001010101017F7F0101013F01010101016D
:1059F000013C4201010179414141423C4141414167
:105A00007F4141414141411C080808080808080835
:105A1000081C1E1010101010101010110E2111096A
:105A200005030305091121410101010101010101E2
:105A300001017F416355554949414141414141413E
:105A40004143434549515161411C2241414141413A
:105A50004141221C1F21414141211F010101011C23
:105A60002241414141414951225C1F214141412193
:105A70001F091121411C224101021C204041221C0E
:105A80007F08080808080808080808414141414102
:105A900041414141221C4141222222221414140876
:105AA0000841414141494949555563414122221428
:105AB0000808081422224141412214140808080849
:105AC00008087F4040201008040201017F1C0404E4
:105AD000040404040404041C01020204040408086D
